:020000040800F2
:10000000980500209D01000897210008651E000842
:1000100095210008710300084D2D00080000000024
:10002000000000000000000000000000952B000808
:10003000FD0300080000000099210008972B00082C
:10004000B7010008B7010008B7010008B7010008B0
:10005000B7010008B7010008B7010008B7010008A0
:10006000B7010008B7010008B7010008B701000890
:10007000B7010008B7010008B701000875030008C0
:10008000B7010008B7010008B7010008B701000870
:10009000B7010008B7010008B7010008B701000860
:1000A000B7010008B7010008B7010008B701000850
:1000B000B7010008B7010008B7010008B701000840
:1000C000B7010008B7010008B7010008B701000830
:1000D000892B0008B7010008B7010008B701000824
:1000E000B7010008B7010008B7010008B701000810
:1000F000B7010008B7010008B7010008B701000800
:10010000B7010008B7010008B7010008B7010008EF
:10011000B7010008B7010008B7010008B7010008DF
:10012000B7010008B7010008B7010008B7010008CF
:10013000B7010008B7010008B7010008B7010008BF
:10014000B7010008B7010008B7010008B7010008AF
:10015000B7010008B7010008B7010008B70100089F
:10016000B7010008B7010008B7010008B70100088F
:10017000B7010008B7010008B7010008000000003F
:10018000B7010008B7010008DFF80CD000F07AF8DA
:10019000004800478D2D000898050020064880473C
:1001A00006480047FEE7FEE7FEE7FEE7FEE7FEE75C
:1001B000FEE7FEE7FEE7FEE7312C000889010008B4
:1001C0002DE9F05F0546002092469B46884606468C
:1001D000814640241BE0284641464746224600F01F
:1001E00041F853465A46C01A914110D31146184659
:1001F000224600F028F82D1A67EB01084F462246E8
:100200000120002100F01FF817EB00094E41201ECD
:10021000A4F10104DFDC484631462A464346BDE8E6
:10022000F09FD2B201E000F8012B491EFBD27047CB
:100230000022F6E710B513460A4604461946FFF7B2
:10024000F0FF204610BD202A04DB203A00FA02F11C
:10025000002070479140C2F1200320FA03F31943B4
:1002600090407047202A04DB203A21FA02F0002156
:10027000704721FA02F3D040C2F1200291400843B6
:1002800019467047064C074D06E0E06840F0010350
:1002900094E8070098471034AC42F6D3FFF778FF94
:1002A000E42D0008042E000810B50124E1030348E2
:1002B00000F00EFB00B10024204610BD00000240FB
:1002C0000146014801F0B4BAC000002010B504484E
:1002D00001F0C0FA042801D0012010BD002010BD9B
:1002E000C000002010B500F015F8012801D0012051
:1002F00010BD074801F0C4FA040006D14FF40061B4
:10030000034801F03DF900B10124204610BD000072
:10031000C000002008B501208DF80000FFF7C4FFE1
:1003200010B900208DF800009DF8000008BD000005
:1003300038B50024009313460A460146034801F0ED
:100340004DFB00B10124204638BD0000C000002054
:1003500038B50024009313460A460146034801F0CD
:100360002DFC00B10124204638BD0000C000002053
:10037000FEE70000014800F067B8000060000020C0
:1003800001681823CAB2103AB2FBF3F2054B6FF3BF
:100390000901032A9B5CC36500D9091D81650846D4
:1003A00070470000C42D000810B5014600208B697D
:1003B0008A6A4FF0C07453B1B3F5005F15D072B1C3
:1003C000012A0CD0022A0AD0032A09D104E01AB16A
:1003D000012A06D0022A03D1C96AC90100D5012029
:1003E00010BDC96AA142FAD010BD002AF7D0012A77
:1003F000F2D0022AF3D0032AF3D010BD704772B6B0
:10040000FEE70022AFF3008030B50E4B0546012019
:100410005C7A002C14D1587A1C54587A03EB800073
:1004200045605D7A03F108002A54587A421C5A72DA
:10043000303008703A2048702F208870CC7000202F
:1004400030BD00008C0100202DE9F84304464FF038
:100450000009CDF8009063484FF41651A56D00686F
:10046000B0FBF1F72E6894F85C10082000FA01F157
:1004700031420FD021680A6852070BD50A6822F072
:1004800004020A6094F85C108840A860606D40F037
:100490000100606594F85C104FF0010808FA01F063
:1004A000304208D021684969090604D5A860606D0A
:1004B00040F00200606594F85C10042088403042EF
:1004C00008D021680968890704D5A860606D40F0EC
:1004D0000400606594F85C1010208840304218D009
:1004E00021680968090714D5A860206801684903D4
:1004F00004D50068000308D5A16C07E00168C905B0
:1005000003D4016821F008010160216C09B1204683
:10051000884794F85C1020208840304231D0216810
:100520000968C9062DD5A86094F83500052820680B
:10053000016806D0490347D5006800031DD4616CEB
:100540001CE021F0160101602068416921F0800162
:100550004161206C08B9A06C20B12068016821F0CD
:100560000801016094F85C103F208840A86084F87E
:10057000358084F83490216D1FE0E16B09B120468D
:100580008847606D00282BD0606DC00714D005200F
:1005900084F835002068016821F0010101600098AD
:1005A000401C0090B84203D820680068C007F6D10C
:1005B00084F8358084F83490E16C002910D001B0C3
:1005C0002046BDE8F04308470168C905D5D4016855
:1005D00021F01001016084F8358084F83490CCE774
:1005E000BDE8F883140000202DE9F041044600F036
:1005F00075F906465CB1022084F83500002584F8C0
:1006000034502068016821F0010101600DE00120F3
:10061000BDE8F08100F062F9801B052805D9202093
:100620006065032084F83500F2E720680068C007A1
:10063000F0D12268116820480140D4E90103184331
:10064000D4E903363343184363691843A369184355
:10065000E3691843236A18430843616A042903D1F4
:10066000D4E90B1319430843106020684069666A97
:1006700020F0070130460E43012704280CD1A06A60
:100680000643E06A40B12046FFF78EFE20B14020CD
:10069000606584F83570BAE7206846612046FFF748
:1006A0006FFE94F85C203F2191408160656584F87D
:1006B00035700020ACE700003F8010F070B50446B4
:1006C00000F00CF90546601C02D004480078044490
:1006D00000F004F9401BA042FAD370BD08000020CE
:1006E0002DE9F84FDFF8BCA10022012503264FF0C9
:1006F0000F090AF1040BAAF1040E00BF0B6805FAFA
:1007000002F42340A34270D10F7907F00307012FB1
:1007100001D0022F16D187684FEA420806FA08FC7A
:1007200027EA0C07D1F80CC00CFA08FC4CEA070CBD
:10073000C0F808C04768A7430C79C4F3001494407C
:100740003C4344600C79E443A4070AD0C4684FEAF0
:10075000420C06FA0CF7BC438F6807FA0CF72743E4
:10076000C7600C7904F00304022C12D1D40800EB0A
:10077000840CDCF820405707FF0E09FA07F824EA3A
:100780000804D1F8108008FA07F848EA0408CCF801
:10079000208004684FEA420C06FA0CF7BC430F793C
:1007A00007F0030707FA0CF7274307604C6814F4B7
:1007B000403F70D03C4C276847F48047276024684E
:1007C00022F0030704F480440094384C07EB040C37
:1007D000DCF8084897074FEA177809FA08F7BC438E
:1007E000334FB84202D1002724E054E0314FB842E1
:1007F00001D101271EE0304FB84201D1022719E094
:100800002E4FB84201D1032714E02D4FB84201D139
:1008100004270FE02B4FB84201D105270AE02A4FE9
:10082000B84201D1062705E0284FB84201D1072779
:1008300000E0082707FA08F72743CCF80878DAF829
:1008400000405746D1F804C09C435FEACC2C00D549
:100850001C433C60DBF800405F46D1F804C09C4379
:100860005FEA8C2C00D51C433C60DEF800407746E4
:10087000D1F804C09C435FEA8C3C00D51C433C602B
:10088000084F083F3C68D1F804C09C435FEACC3C69
:1008900000D51C433C60521C102AFFF42FAFBDE86A
:1008A000F88F0000083C014044380240003001400D
:1008B000000002400004024000080240000C024018
:1008C000001002400014024000180240001C0240C8
:1008D0000069084000D0012070470000014880688E
:1008E00070470000080000202DE9FF410446006821
:1008F000816800917749784E4FF04027884201D1B6
:10090000324600E03A46926801924068884602907A
:1009100001D1304600E038464068039060684FF0EF
:100920000105B0F5007F1CD0D8B1900705D503981C
:10093000000602D5204601F0C7FA0098C0070FD084
:10094000029840067FD521682046CA68E16A8B1C60
:10095000E3620A80618E491E6186618E002967D03C
:1009600071E00098800719D50298000616D5616AD3
:1009700020468A1C626222680988D160618D491E06
:100980006185618D51B901684A6822F0A0024A6010
:10099000418E19B980F8415000F0A0F80198C007C5
:1009A00005D00398400602D5204601F05DFA019873
:1009B000400622D5039880061FD52168414501D104
:1009C000304600E03846406820F0600101D13046F2
:1009D00000E0384641602068416821F0A001416094
:1009E0002068C1688068019084F84150606C40F0D4
:1009F00002006064204600F072F80098000767D596
:100A00000298800664D52068416821F0A001416009
:100A10002168414501D1304600E03846406820F069
:100A2000600000D03E46706020688068009043E01F
:100A300001684A6822F060024A60418D19B980F865
:100A4000415000F04BF8009840061ED502988006F1
:100A50001BD52068416821F0600141602168414553
:100A600001D1304600E03846406820F0A00101D1B5
:100A7000304600E03846416084F84150606C40F0F8
:100A800002006064204600F02AF8019800071FD594
:100A9000039880061CD52168414501D1304600E00D
:100AA0003846406820F0A00000D03E4670602068C4
:100AB000416821F06001416084F84150606C40F071
:100AC0000400606404B02046BDE8F04100F007B8BF
:100AD000BDE8FF8100380040003400407047704797
:100AE000416B08472DE9F047040005D094F8410018
:100AF0004FF0000818B109E00120BDE8F08784F844
:100B0000408051486063204600F0A6F8022684F831
:100B100041602068C16940F6BF77B943C161206870
:100B2000066260694FF4007902282FD0E06870B146
:100B30002025A068202800D86D00012000F0B0F921
:100B4000216949451FD1E16819B1A90002E01025CA
:100B5000EFE7E900B0FBF1F000EB800061694000D5
:100B6000B0FBF1F0401D0A21B0FBF1F000F00101F3
:100B7000401A40080902821EFE2A09D3606C40F028
:100B800010006064B8E7B0FBF5F0E5E70220002153
:100B900022690843024320680262D4E90101084344
:100BA000A269E168114308432168CA69BA43104346
:100BB00040F40060C861206A01283AD1234860638C
:100BC00023482168234A4FF04023814201D1114636
:100BD00000E01946C96921EA070101D1154600E084
:100BE0001D46E9612168814201D1114600E01946A4
:100BF0000E622568854201D1114600E01946C96997
:100C00008EB2616849451BD0D1B100212789B4F863
:100C10000CC047EA0C07B4F818C04CEA010C47EACC
:100C20000C07B9B2314341F40061854200D01A4645
:100C3000D161C4F84480012084F8410000205CE7C1
:100C40004FF48071E2E70000291F0008E90800085E
:100C500000380040003400402DE9F0418AB00646DB
:100C600014216846FFF7E4FA0024059406940794DB
:100C7000089437493068884266D1012005903220B7
:100C80000225CDE9060505A800F03AF908B1FFF7FD
:100C9000B6FB3048016841F48041016000682D498D
:100CA00000F4804010390990086840F004000860A2
:100CB000086800F004000990086840F0020008602D
:100CC0000868DFF8948000F002000990042000908A
:100CD000CDE901540620CDE9034069464046FFF7BF
:100CE000FFFC48200090CDE901540527CDE90347DA
:100CF00069464046FFF7F4FCB8020090CDE9015484
:100D0000CDE9034769461548FFF7EAFC154D14483D
:100D1000C5E900044020C5E902040001C5E9040456
:100D2000AC61EC612C6228466C62FFF75DFC08B197
:100D3000FFF765FBB563002211462420AE6300F087
:100D40007DF8242000F06CF80AB0BDE8F0810000C6
:100D500000380040403802400008024000040240D1
:100D60007060024060000020704770470248816850
:100D70000278114481607047080000200B4810B5CC
:100D8000016841F400710160016841F48061016013
:100D9000016841F480710160032000F06FF80F20BA
:100DA00000F006F800F024F8002010BD003C0240DE
:100DB00070B50D4D04464FF47A712878B1FBF0F010
:100DC0000A490968B1FBF0F000F0D0FF48B9102CD7
:100DD00007D200222146501E00F030F800206C603F
:100DE00070BD012070BD000008000020140000202C
:100DF0000A4808B5016841F480410160006800F4C8
:100E0000804000900548001F016841F0805101605A
:100E1000006800F08050009008BD00004438024097
:100E2000002809DB00F01F020121914040098000E9
:100E300000F1E020C0F8001170470000F0B40E4B44
:100E40001B680C46C3F30223C3F10705042D00D928
:100E50000425191D072901D2002300E0DB1E01260D
:100E600006FA05F1491E214099409E40761E164023
:100E70003143F0BC01F06BBF0CED00E0064900F01F
:100E8000070208684FF6FF03184040EA0220034AB1
:100E900010430860704700000CED00E00000FA0508
:100EA00001460020012908D11149096811F4000107
:100EB00004D0B1F5000F00D10E4870470C48001F58
:100EC00001680068490200F03F0001D50A4900E0CE
:100ED0000A49074AB1FBF0F07C321168C1F388116E
:100EE00041431068C0F30270B1FBF0F0704700009E
:100EF000083802400080BB0040787D010024F400E7
:100F00002DE9F843054600684FF00109C1074FF08D
:100F1000000601D1400727D5DFF80C81C8F86860CA
:100F2000FFF7DCFC0746414C05E000BFFFF7D6FCAD
:100F3000C01B022857D820680001F7D468688101D7
:100F4000287A41EA0070394984310860C8F868900D
:100F5000FFF7C4FC074604E0FFF7C0FCC01B0228F3
:100F600041D820680001F7D52878800752D52F484E
:100F70004030016841F08051016000682C4C00F065
:100F800080500090206840F480702060FFF7A6FC3D
:100F9000074604E0FFF7A2FCC01B022823D8206804
:100FA000C005F7D5214C7034206810F4407020D073
:100FB000A98901F4407181421BD020681D4920F4A9
:100FC0004070C1F800900E6020602068C00710D00B
:100FD000FFF784FC064641F2883707E0FFF77EFC06
:100FE000801BB84202D90320BDE8F883206880073F
:100FF000F4D5E9680D48C1F301220830032A0BD06B
:10100000016821F4F81101602068A989C1F30B017E
:10101000084320600020E7E70268074B22F4F8123B
:1010200019400A430260EFE70000474200380240DF
:1010300000700040400E4742FFFCFF0F2DE9F047D3
:101040000E46050065D0DFF81481D8F80000F7B22D
:1010500000F00700B04207D288F80070D8F800000E
:1010600000F00700B04254D128683D4C810712D5EA
:10107000400703D5206840F4E0502060287800073E
:1010800003D5206840F4604020602068A96820F003
:10109000F000084320602878C0072DD030496868E8
:1010A0000839012812D0022813D0032811D009686A
:1010B000890700292DDA216821F00301014321600D
:1010C000FFF70CFC814641F2883A0EE0096889037B
:1010D000EFE709688901ECE7FFF700FCA0EB0901E5
:1010E000514502D90320BDE8F0872068696800F007
:1010F0000C00B0EB810FEFD1D8F80010404601F0A2
:101100000701B14207D90770006800F00700B0423C
:1011100001D00120E7E72878400705D52068E96875
:1011200020F4E050084320602878000706D52068A6
:10113000296920F4604040EAC100206000F038F8DE
:101140002168084AC1F30311515CC8400649086090
:1011500006480068FFF72CFE0020C4E7003C024070
:1011600008380240CC2D0008140000200C0000209C
:101170000448054900680968044AC1F38221515CAA
:10118000C84070471400002008380240DC2D0008D9
:101190000448054900680968044AC1F34231515CBA
:1011A000C84070471400002008380240DC2D0008B9
:1011B000154810B5006810F00C02144813D01449FB
:1011C000042A0FD0082A0ED10F4C241F226823684E
:1011D00002F03F025B0207D52068C0F38810A0FB35
:1011E000010106E0084610BD2168C1F38811A1FB8A
:1011F00000010023FEF7E4FF2168C1F30141491C0F
:101200004900B0FBF1F010BD083802400024F400A2
:1012100040787D012DE9F84F04006ED02078DFF88A
:101220004C93C007A9F104054AD009F104000168F4
:10123000C1F38101012908D00068C0F381000228B0
:101240000AD1D9F80000400206D52868800337D5B6
:1012500060680028E1D033E06068B0F5803F10D0CE
:10126000B0F5A02F286810D020F4803028602868BE
:1012700020F4802028606068A8B1FFF72FFB0646A5
:101280000DE0286840F48030F4E740F480202860C6
:10129000F7E700BFFFF722FB801B642873D828689C
:1012A0008003F7D50CE0FFF719FB064605E000BF09
:1012B000FFF714FB801B6428F0D828688003F7D45C
:1012C0002078DFF8AC8280074FF0000A3ED5A748AF
:1012D000001D016811F00C0F08D00068C0F38100F8
:1012E00002280BD1D9F80000400207D428688007F3
:1012F00016D5E068012800D112E033E1E068B8B10A
:101300000120C8F80000FFF7E9FA064605E000BF33
:10131000FFF7E4FA801B0228C0D828688007F7D5B9
:101320002868216920F0F80040EAC10028600DE03B
:10133000C8F800A0FFF7D2FA064604E0FFF7CEFA9D
:10134000801B02281FD828688007F7D42078000760
:1013500022D5864F87486169703771B101210160DC
:10136000FFF7BCFA064604E0FFF7B8FA801B022834
:1013700009D838688007F7D50EE0C0F800A0FFF75D
:10138000ADFA064605E082E0FFF7A8FA801B0228C6
:101390007DD838688007F7D42078400768D5DFF813
:1013A000CCB100270BF13C0BDBF80000C0000BD4E4
:1013B000DBF8001041F08051CBF80010DBF80000A2
:1013C000012700F0805000906B4E3068C00510D4AB
:1013D000306840F480703060FFF780FA009005E0DC
:1013E000FFF77CFA0099401A022850D83068C005EF
:1013F000F6D55E4EA0686C3601280FD005283068FF
:1014000010D020F001003060306820F0040030601F
:10141000A068B8B1FFF762FA00900FE0306840F0C2
:101420000100F4E740F004003060F7E7FFF756FAF8
:101430000099411A41F28830814266D830688007AD
:10144000F4D50EE0FFF74AFA009007E0FFF746FAFE
:101450000099411A41F28830814256D8306880079D
:10146000F4D42FB1DBF8001021F08051CBF800103C
:10147000A069C8B33D49091D0968C1F3810102296A
:101480004AD00228504607D0C8F8600000E03CE08F
:10149000FFF724FA04463BE04746C8F86000FFF730
:1014A0001DFA064605E000BFFFF718FA801B022868
:1014B0002BD828688001F7D4D4E907010843A16A32
:1014C0002E4A490802EB0141626A41EA821108434F
:1014D00094F82C1040EA0161C9F800100120386628
:1014E000FFF7FCF9044606E03EE000BFFFF7F6F91F
:1014F000001B022809D828688001F7D534E000BF16
:10150000FFF7ECF9001B022802D90320BDE8F88F91
:1015100028688001F4D427E00128F7D0D9F800002A
:10152000E26900F4800191421CD1226A00F03F017F
:10153000914217D147F6C071626A0140B1EB821F38
:1015400010D1A26A4FF0FF3300F4403103EB520296
:10155000B1EB024F06D194F82C1000F07060B0EBA4
:10156000016F01D00120D1E70020CFE7043802400D
:1015700000004742800E4742007000400000FFFF1D
:101580002DE9FE430446002603200D4684F834006E
:10159000606C03285ED0B5F5805F5BD04FF40067C8
:1015A00000204FF08068BD421FD18146009001901D
:1015B0000021206800F007FE800113D46946204610
:1015C00001F03EF907000DD10198400334D5B4F87D
:1015D00050000104206800F027FE070002D102211C
:1015E000206823E0A06B384328E01DB1A06B40F0D9
:1015F000006023E08146009001900021206800F007
:10160000E2FD8001EED46946204601F019F9070099
:10161000E8D10198C0030FD5B4F850000104206848
:1016200000F002FE0700DDD10021206800F049FE35
:101630000700D7D14F46D5E74746D3E7A063A06B55
:10164000144F4FF0010848B12068876384F8348054
:1016500001260EE0A06B40F08050EFE7211DD4E999
:10166000050C0EC9CDE90050CDF808C0206800F087
:10167000ADFD4FF40071206800F00AFE28B121682A
:101680008F63A16B0143A163012684F83480304647
:10169000BDE8FE83FF054000F0B5426E920F0A7070
:1016A000426EC2F383624A70426EC2F301628A7074
:1016B000426E120CCA70B0F86420120A0A7190F8D7
:1016C00064204A71826E120DCA80826EC2F3034298
:1016D0000A72B0F86820C2F3C0324A72B0F86820CB
:1016E000C2F380328A72B0F86820C2F34032CA7204
:1016F000B0F86820C2F300320A7300264E73426CC1
:101700004FF40075012462B1012A3AD002684749BA
:101710009163816B41F08051816380F834400120F6
:10172000F0BDB0F86820C36E9205120D42EA9372C4
:101730000A61C26EC2F3C2620A75C26EC2F302626D
:101740004A75C26EC2F342528A75C26EC2F38242B9
:10175000CA75C26EC2F3C2320A760A69521C426569
:101760000B7E03F007039B1C9A4042650B7A03F043
:101770000F0704FA07F383655B0A5A43C0E917258C
:101780000EE090F86820C36E9206920A42EA134275
:101790000A610A69521C92024265C0E91652056646
:1017A00030F86C2FC2F3803201F8192F0288C2F38F
:1017B000C6124A70027802F07F028A704268D20F25
:1017C000CA704268C2F341720A714268C2F382620F
:1017D0004A714268C2F383528A714268C2F340522E
:1017E000CA710E724268C2F300424A728288C2F322
:1017F000C0328A728288C2F38032CA728288C2F38F
:1018000040320A738288C2F300324A738288C2F37C
:1018100081228A738288C2F30122CA730079C0F3DD
:10182000460008744C740020F0BD0000FF05400025
:10183000426C0A60826C4A60C26C8A60026DCA6047
:10184000426D0A61826D4A61C26D8A61006EC86133
:101850000020704770B50446B0F850000025010420
:10186000206800F016FE18B1A16B0143A16304E0EB
:101870000021206800F0A7FC0546C5F3432070BD99
:1018800070B504000ED094F83400002518B92577FF
:10189000204600F04DF8032084F83400204600F084
:1018A0000BF808B1012070BDA5632563012084F801
:1018B0003400002070BD0000FEB5002504467620EF
:1018C0000095CDE901502B462A462946206800F0B4
:1018D0007DFC154E46F8A05F206800F089FC0125CC
:1018E00035600220FEF7EAFE204601F091F828B1AB
:1018F00084F83450A16B0143A16313E0204601F04A
:101900000FF80028F4D14FF40071206800F0C0FCFB
:10191000002808D0226805499163A16B0143A163A7
:1019200084F834500120FEBD00802542FF054000B0
:101930002DE9F04387B0044614216846FEF778FC91
:101940002249206888423ED121484FF000090168B1
:1019500041F400610160006800F4006005901C48DB
:101960001438016841F004010160016801F00401CC
:101970000591016841F0080101600068022400F04F
:10198000080005904FF4706001278DE89100032551
:101990000C26DFF84080CDE9035669464046FEF745
:1019A0009FFEE0028DE81102CDE9035669464046EC
:1019B000FEF796FE04208DE89100CDE903566946B6
:1019C0000548FEF78DFE07B0BDE8F083002C01400E
:1019D0004438024000080240000C02402DE9F04F5C
:1019E00087B09B4616460D460446FEF777FF0090EB
:1019F0003DB194F83400012807D0A06B40F00050AE
:101A00000DE0A06B40F0006009E00020A063E26DF3
:101A100006EB0B01914204D9A06B40F00070A0636B
:101A20008AE0032184F834102168C862616C0129BE
:101A300000D076024FF0FF3101914FEA4B21029125
:101A40004FF0010803AA902102278146CDF81880A3
:101A500082E8820201A9206800F09FFBBBF1010F20
:101A600005D927633146206800F084FC05E0C4F8FE
:101A700030803146206800F096FCDFF83CA130B1A0
:101A80002268C2F838A0A16B0143A16350E0029E16
:101A90001FE0406B000413D596B10027206800F0CA
:101AA000ABFB05F8010B010A05F8011B010C05F859
:101AB000021B000E361F7F1C05F8010C082FEDD30A
:101AC000FEF70CFF01460098091A1098814220D2B7
:101AD000F8B12068426B40F22A310A42D9D0416BFA
:101AE000C90509D5BBF1010F06D9616C032903D0E3
:101AF00000F000FD0028C3D12068416B090702D423
:101B0000416B89051AD5C0F838A0A06B40F00800D9
:101B100050E02168C1F838A0A06B40F00040A063FD
:101B200084F83480C4F83090032007B0BDE8F08F0B
:101B300084F83480C4F830900120F6E7416B8907BF
:101B400005D5C0F838A0A06B40F0020032E0416B30
:101B500089061BD5C0F838A0A06B40F0200029E012
:101B600000F04AFB05F8010B010A05F8011B010C06
:101B700005F8021B000E05F8010C361FFEF7AEFE3D
:101B80000099411A109881420ED268B12068416BC9
:101B9000890201D5002EE3D1216840F23A508863D2
:101BA00084F834800020C0E72168C1F838A0A06B19
:101BB00040F00040A063BBE7FF0540002DE9F04F77
:101BC0008DB09B4616460D460446FEF787FE0A90EA
:101BD0003DB194F83400012807D0A06B40F00050CC
:101BE0000DE0A06B40F0006009E00020A063E26D12
:101BF00006EB0B01914204D9A06B40F00070A0638A
:101C00007AE0032184F834102168C862616C0129EC
:101C100000D076024FF0FF3103914FEA4B2104913F
:101C20009021CDE905104FF00109CDE90709824661
:101C300003A9206800F0B1FABBF1010F06D92020FA
:101C400020633146206800F06FFC05E0102020631F
:101C50003146206800F081FC5FEA000806D0216868
:101C600041488863A06B40EA080074E0049E27E0C6
:101C7000406B40041CD5DEB15FF0000715F8010B86
:101C8000009015F8011B361F40EA0120009015F85E
:101C9000021B40EA0140009015F8011C40EA016077
:101CA00000906946206800F0BAFA7F1C082FE5D33F
:101CB000FEF714FE0A99411A1698814220D2F8B113
:101CC0002068416B40F21A321142D1D0416BC905F4
:101CD00023D5BBF1010F20D9616C03291DD000F081
:101CE00009FCD0B1226820499163A16B0143A16333
:101CF00084F83490C4F830A001200DB0BDE8F08F16
:101D0000216819488863A06B40EA0800A06384F842
:101D10003490C4F830A00320EFE72068416B090736
:101D200002D4416B890505D50F498163A06B40F052
:101D3000080010E0416B890705D50B498163A06B52
:101D400040F0020007E0416BC90606D506498163F1
:101D5000A06B40F01000A063CAE740F23A518163E3
:101D600084F834900020C8E7FF05400010B5401EFD
:101D7000B0F1807F01D3012010BD4FF0E0246061FD
:101D80000F21601700F0E3FF0020A0610720206111
:101D9000002010BD70B5040004D094F84100002567
:101DA00010B106E0012070BD84F84050204600F0DC
:101DB00023F8242084F841002068C16821F40051F0
:101DC000C160204600F03CFF2068016921F4904189
:101DD00001612068416921F02A0141612068C168E0
:101DE00041F40051C1606564202084F8410084F80A
:101DF00042006563002070BD10B586B00446142112
:101E00006846FEF715FA14492068884221D1134824
:101E10000021026842F010020260006800F0100029
:101E200005900E481438026842F001020260006812
:101E300000F0010005904FF4C06000900220CDE951
:101E40000101032003900720049069460448FEF72F
:101E500047FC06B010BD00000010014044380240AD
:101E600000000240FEE7000070B515490268154BFE
:101E70004FF040248A4201D11A4600E02246D5683C
:101E8000C26A961CC6621580428E521E4286428EDF
:101E9000002A14D102688A4201D1194600E0214685
:101EA000496821F0600100D023465960418D002926
:101EB00005D14FF0010180F84110FEF70FFE70BD13
:101EC000003800400034004070B5416A144B8A1C51
:101ED000426205680988134A4FF040249D4201D1AF
:101EE000154600E02546E960418D491E4185418D3A
:101EF000002914D10168994201D1114600E0214620
:101F0000496821F0A00100D022465160418E00298D
:101F100005D14FF0010180F84110FEF7DFFD70BDE3
:101F200000380040003400407CB5016804468868F1
:101F3000009094F841000125042834D10098C0078E
:101F400018D04868C043400614D4C9682046E26AE5
:101F50001180E16A891CE162618E491E6186618E91
:101F600041B901684A6822F060024A6080F8415035
:101F7000FEF7FAFE0098400615D520684168C9436F
:101F8000890610D4416821F0600141602068C16871
:101F90008068019084F84150606C40F002006064F9
:101FA0002046FEF79CFD94F84100032834D10098A8
:101FB000800719D521684868C043000614D4626AB6
:101FC00020461288CA60616A891C6162618D491E5F
:101FD0006185618D41B901684A6822F0A0024A60BA
:101FE00080F84150FEF7C1FE0098000714D5206824
:101FF0004168C94389060FD4416821F0A0014160BE
:1020000020688068009084F84150606C40F00400C3
:1020100060642046FEF763FD7CBD0000094808B5FA
:10202000016841F4001101600068002200F4001012
:10203000009011460F20FEF701FFBDE808400F2079
:10204000FEF7EEBE3038024010B504490448FEF7F2
:10205000D8F90249491E087010BD00000200002096
:10206000B02D000800B587B014216846FEF7E0F8EF
:102070001A480021026842F080020260026802F001
:1020800080020592026842F004020260026802F0D7
:1020900004020592026842F002020260026802F045
:1020A00002020592026842F001020260026802F038
:1020B00001020592026842F0080202600068029183
:1020C00000F0080005904FF40040CDE9000169469A
:1020D0000348FEF705FB07B000BD000030380240A2
:1020E000000002400C490D4810B54A15C0E9001225
:1020F00000218160C0E903124AF64442C0E905218B
:10210000C16101210162FEF7EDFC002803D0BDE8AA
:102110001040FEF774B910BD0038004018000020D0
:1021200010B50D480B490022C0E900128260C26060
:1021300042618261CC140261FFF7A2FB214606488E
:10214000FFF71EFA002803D0BDE81040FEF757B98C
:1021500010BD0000002C0140C00000200C4810B54C
:102160000A4901604FF4E1314160002181600C2295
:10217000C160C0E904128161C161FFF70BFE002854
:1021800003D0BDE81040FEF73AB910BD0010014081
:1021900044010020FEE7FEE770470A6842624A6891
:1021A0008262D1E902231A43D1E904310B43C16AA7
:1021B0001A4321F0F7011143C16200207047006803
:1021C00000F00300704708444069704770B50DF196
:1021D000100C11439CE870002343194329434268C3
:1021E000314347F6FF639A430A434260002070BDC3
:1021F0000321016000207047D0F8800070470A6812
:102200008260D1E901231A43D1E903310B43C1684C
:102210001A436FF30B011143C16000207047096836
:10222000C0F880100020704710B585B004463720F4
:10223000CDE9001040200290002003904FF4806010
:10224000049069462046FFF7DAFF41F288323721D1
:10225000204600F09BF905B010BD000010B5044603
:102260000A4885B001432920CDE9001040200290A2
:10227000002003904FF48060049069462046FFF7E9
:10228000BEFF204600F03AFA05B010BD00001080F5
:1022900010B585B004461020CDE900104020029012
:1022A000002003904FF48060049069462046FFF7B9
:1022B000A6FF41F288321021204600F067F905B0F0
:1022C00010BD10B585B004460620CDE900104020B1
:1022D0000290002003904FF48060049069462046ED
:1022E000FFF78DFF41F288320621204600F04EF9BB
:1022F00005B010BD30B585B00024054600940194AA
:102300004FF480600294CDE9034069462846FFF708
:1023100076FF0B484FF4FA510068B0FBF1F041F240
:1023200088314843401E03D24FF0004005B030BD15
:10233000696B0906F6D5C520A8632046F6E70000BC
:102340001400002010B585B004464FF4D5700090FD
:102350000820019040200290002003904FF48060FC
:10236000049069462046FFF74AFF204600F02CFA09
:1023700005B010BD10B585B004461220CDE900109F
:1023800040200290002003904FF480600490694642
:102390002046FFF734FF41F288321221204600F038
:1023A000F5F805B010BD10B585B004461120CDE993
:1023B000001040200290002003904FF480600490B1
:1023C00069462046FFF71BFF41F288321121204663
:1023D00000F0DCF805B010BD10B585B0044607204C
:1023E000CDE9002040200290002003904FF480604F
:1023F000049069462046FFF702FF41F28832072128
:10240000204600F0C3F805B010BD10B585B00446F5
:1024100000210220CDE90010C020CDE902014FF4D7
:102420008060049069462046FFF7E9FE204600F0F0
:102430003DF905B010BD10B585B004460920CDE9C1
:102440000010C0200290002003904FF480600490A0
:1024500069462046FFF7D3FE204600F027F905B075
:1024600010BD10B585B0044600213320CDE9001021
:102470004020CDE902010001049069462046FFF7A3
:10248000BEFE41F288323321204600F07FF805B0CD
:1024900010BD10B585B004460D20CDE900104020D8
:1024A0000290002003904FF480600490694620461B
:1024B000FFF7A5FE41F288320D21204600F066F8B4
:1024C00005B010BD30B585B00C460546002103208F
:1024D000CDE900104020CDE90201000104906946D9
:1024E0002846FFF78CFE22460321284600F028F9F3
:1024F00005B030BD10B585B0044600210C20CDE9F3
:1025000000104020CDE902010001049069462046F8
:10251000FFF775FE034A0C21204600F037F805B09E
:1025200010BD000000E1F50510B585B00446192086
:10253000CDE9001040200290002003904FF480600D
:10254000049069462046FFF75AFE41F2883219216D
:10255000204600F01BF805B010BD10B585B004464C
:102560001820CDE9001040200290002003904FF485
:102570008060049069462046FFF741FE41F28832B0
:102580001821204600F002F805B010BD454B10B5EB
:102590001B684FF4FA54B3FBF4F353435B1E02D2AF
:1025A0004FF0004010BD426B12F0450FF6D01205FF
:1025B000F4D4426B520703D504218163084610BD51
:1025C000426BD20702D00121816305E0C5228263FC
:1025D0000269D2B28A4201D0012010BD0021FFF76A
:1025E000F2FD3149084201D1002010BD002802DA75
:1025F0004FF0007010BD410001D5402010BD81009A
:1026000001D5802010BDC10002D54FF4807010BDEF
:10261000010102D54FF4007010BD410102D54FF405
:10262000806010BDC10102D54FF4006010BD0102F1
:1026300002D54FF4805010BD410202D54FF4005036
:1026400010BD810202D54FF4804010BDC10202D5F9
:102650004FF4004010BD410302D54FF4003010BDCF
:10266000810302D54FF4802010BDC10302D54FF481
:10267000002010BD010402D54FF4801010BD4104AC
:1026800002D54FF4001010BD810402D54FF4800034
:1026900010BD000702D54FF4000010BD4FF480308C
:1026A00010BD00001400002008E0FFFD12494FF4A7
:1026B000FA520968B1FBF2F141F288325143491EE6
:1026C00002D24FF000407047426B12F0450FF6D037
:1026D0001205F4D4416B490703D5042181630846F0
:1026E0007047416BC90703D00121816308467047D9
:1026F000C521816300207047140000200F494FF46A
:10270000FA520968B1FBF2F141F288325143491E95
:1027100002D24FF000407047426B12F0450FF6D0E6
:102720001205F4D4416B490703D50421816308469F
:102730007047C5218163002070470000140000200D
:1027400030B5204B4FF4FA541B68B3FBF4F341F25D
:10275000883463435B1E02D24FF0004030BD446BAF
:1027600014F0450FF6D02405F4D4436B5B0703D572
:1027700004218163084630BD436BDB0702D0012191
:10278000816303E00369DBB28B4201D0012030BDDD
:10279000C52181630021FFF716FD10F4604F04D0BE
:1027A000410406D54FF4005030BD000C10800020CD
:1027B00030BD000402D54FF4805030BD4FF480305E
:1027C00030BD00001400002014494FF4FA5209688B
:1027D000B1FBF2F141F288325143491E02D24FF06F
:1027E00000407047426B12F0450FF6D01205F4D44A
:1027F000416B490703D50421816308467047416B4B
:10280000C90703D00121816308467047416B49061F
:1028100001D5402181630020704700001400002092
:1028200010B5064C01202070FDF750FD18B9207836
:1028300020F001002070207810BD00000000002072
:102840002DE9F04788B00D460446FEF747F800260C
:10285000824600960196374608212068FFF718FD4A
:1028600000282CD1B4F8500001042068FFF7DCFCEC
:10287000002824D1401E4FF00808CDE9020830207E
:102880004FF00209CDE904090120CDE9067002A943
:102890002068FFF782FC2068FFF7E3FD00280ED1D7
:1028A0006F462068416B11F02A0F0BD0416B09076E
:1028B00002D4416B89051AD5C0F83880082008B0C9
:1028C000BDE8F087416B890205D5FFF795FC47F815
:1028D0002600761C02E0416B8904E7D5FDF7FEFF78
:1028E000A0EB0A00401CDCD14FF00040E7E7416B51
:1028F000890703D5C0F838900220E0E7416B8906CC
:1029000003D5202181630846D9E740F23A5181631B
:10291000019800BA2860009800BA68600020CEE7ED
:1029200010B590B004460120ADF838002068FFF7DC
:1029300046FC002854D0606C032842D02068FFF782
:1029400064FD00284AD100212068FFF73CFC606745
:1029500004212068FFF737FCA06708212068FFF7F3
:1029600032FCE0670C212068FFF72DFCC4F88000E2
:10297000606C032825D00EA92068FFF7A3FD00286E
:102980002CD1606C03281CD0BDF8380020650104F0
:102990002068FFF750FD002820D100212068FFF7B4
:1029A00012FC606604212068FFF70DFCA066082178
:1029B0002068FFF708FCE0660C212068FFF703FCA5
:1029C000206704212068FFF7FEFB000DE06403A9E7
:1029D0002046FEF761FE30B14FF0805010B010BDC0
:1029E0004FF08060FAE7B4F850000023020420683A
:1029F000FFF7F2FC0028F1D104F1100007C88DE8C0
:102A0000070094E80F00FFF7E1FB0020E6E7000075
:102A10002DE9F84F0026044600963546B04600687A
:102A2000FFF768FC002827D12068FFF78BFC4FF0E8
:102A3000805B4FF001094FF6FF7748B1A66420682C
:102A4000FFF758FC002817D1A06C012802D020E025
:102A5000C4F8489000212068FFF7E6FB58B918E059
:102A600000212068FFF7E0FB002805D151462068CF
:102A7000FFF7F4FB10B15846BDE8F88F002120683D
:102A8000FFF7A1FB05464FEAD0780098401C009064
:102A900002E0DFF82CA00098B84202D2B8F1000F93
:102AA000DED00098B84202D34FF08070E4E76800AF
:102AB00002D5C4F8449000E066640020DCE7000022
:102AC000000010C170B5064C054601202070FDF7CE
:102AD00009FC18B92846FFF7A3FE2070207870BDC6
:102AE0000000002010B5124888B014460078C007D6
:102AF00002D0032008B010BDC1B1012905D00229C0
:102B000008D003290CD00420F4E76846FDF7D8FB71
:102B100006980AE06846FDF7D3FB0798208005E099
:102B20006846FDF7CDFB0798400A20600020E1E7EA
:102B30000000002070B51D46164608460124A31E5D
:102B40002A463146FDF7F4FB28B900BFFDF7BEFB6E
:102B50000028FBD10024204670BDFFF761BE0000B5
:102B600070B51D46164608460124A31E2A46314666
:102B7000FDF7EEFB28B900BFFDF7A8FB0028FBD14D
:102B80000024204670BD00000148FDF7A9BF0000E9
:102B9000180000207047FEF7E9B8000030B593B088
:102BA00030216846FDF744FB14210CA8FDF740FBDB
:102BB0001D480025016841F080510160006800F067
:102BC000805011901948016841F48041016000680B
:102BD000022400F480401190012003901020049002
:102BE000009406940820CDE90750A820CDE90904F7
:102BF00007200B906846FEF70DFB08B172B6FEE7A2
:102C00000CA90F2081E831004FF4A0500F904FF431
:102C10008050109005210CA8FEF710FA002801D072
:102C200072B6FEE713B030BD40380240007000407D
:102C30000248016841F470010160704788ED00E0CE
:102C400070B5044600680169E26821F440511143FF
:102C500001612169A068E269084361691143084381
:102C60002168CA6849F20C639A430243CA6020682B
:102C70004169A26921F440711143416131492068E1
:102C8000884202D03049884202D1FEF781FA01E041
:102C9000FEF76EFAE2690023192164253226B2F5A7
:102CA000004F626828D0A0FB0101930F9200FDF74E
:102CB00087FA0146B0FBF5F06FF01802504301EBC4
:102CC000800006EB0010B0FBF5F000F0F002B1FB65
:102CD000F5F002EB0012B1FBF5F06FF0180358436A
:102CE00001EB800006EB0010B0FBF5F000F00F00E8
:102CF00021681044886070BDA0FB010192185B41FF
:102D0000FDF75EFA0146B0FBF5F00201B1FBF5F00C
:102D10006FF01803584301EB800006EBC000B0FBD6
:102D2000F5F000F0F80002EB4002B1FBF5F058437B
:102D300001EB800006EBC000B0FBF5F000F00700EF
:102D4000D6E700000010014000140140FEE709072B
:102D5000090E002804DB00F1E02080F80014704721
:102D600000F00F0000F1E02080F8141D704702E031
:102D700008C8121F08C1002AFAD170477047002006
:102D800001E001C1121F002AFBD17047FDF7F6FFD9
:102D9000FFF704FFFFF766F9FFF740F9FFF7A2F925
:102DA000FFF7BEF9FFF7DAF9FFF74EF9FEE700008B
:102DB000C52A00085B2B0008352B0008612B000892
:102DC000E52A000800061016000610160000000094
:102DD00000000000010203040607080900000000CB
:102DE00001020304042E0008000000201800000067
:102DF0006E2D00081C2E0008180000208005000021
:102E00007E2D00080100000000000000010000000D
:0C2E100010000000000000000024F4008E
:040000050800018965
:00000001FF
