:020000040800F2
:10000000386800209D0100084B240008C520000826
:100010004924000871030008C330000800000000F4
:10002000000000000000000000000000492E000851
:1000300025040008000000004D2400084B2E000895
:10004000B7010008B7010008B7010008B7010008B0
:10005000B7010008B7010008B7010008B7010008A0
:10006000B7010008B7010008B7010008B701000890
:10007000B7010008B7010008B701000875030008C0
:10008000B7010008B7010008B7010008B701000870
:10009000B7010008B7010008B7010008B701000860
:1000A000B7010008B7010008B7010008B701000850
:1000B000B7010008B7010008B7010008B701000840
:1000C000B7010008B7010008B7010008B701000830
:1000D0003D2E0008B7010008B7010008B70100086D
:1000E000B7010008B7010008B7010008B701000810
:1000F000B7010008B7010008B7010008B701000800
:10010000B7010008B7010008B7010008B7010008EF
:10011000B7010008B7010008B7010008B7010008DF
:10012000B7010008B7010008B7010008B7010008CF
:10013000B7010008B7010008B7010008B7010008BF
:10014000B7010008B7010008B7010008B7010008AF
:10015000B7010008B7010008B7010008B70100089F
:10016000B7010008B7010008B7010008B70100088F
:10017000B7010008B7010008B7010008000000003F
:10018000B7010008B7010008DFF80CD000F07AF8DA
:1001900000480047E14900083868002006488047C9
:1001A00006480047FEE7FEE7FEE7FEE7FEE7FEE75C
:1001B000FEE7FEE7FEE7FEE7E52E000889010008FE
:1001C0002DE9F05F0546002092469B46884606468C
:1001D000814640241BE0284641464746224600F01F
:1001E00041F853465A46C01A914110D31146184659
:1001F000224600F028F82D1A67EB01084F462246E8
:100200000120002100F01FF817EB00094E41201ECD
:10021000A4F10104DFDC484631462A464346BDE8E6
:10022000F09FD2B201E000F8012B491EFBD27047CB
:100230000022F6E710B513460A4604461946FFF7B2
:10024000F0FF204610BD202A04DB203A00FA02F11C
:10025000002070479140C2F1200320FA03F31943B4
:1002600090407047202A04DB203A21FA02F0002156
:10027000704721FA02F3D040C2F1200291400843B6
:1002800019467047064C074D06E0E06840F0010350
:1002900094E8070098471034AC42F6D3FFF778FF94
:1002A000D0510008F051000810B50124E1030348C3
:1002B00000F05AFB00B10024204610BD00000240AF
:1002C0000146014801F094BBD800002010B5044855
:1002D00001F0A0FB042801D0012010BD002010BDBA
:1002E000D800002010B500F015F8012801D0012039
:1002F00010BD074801F0A4FB040006D14FF40061D3
:10030000034801F01DFA00B10124204610BD000091
:10031000D800002008B501208DF80000FFF7C4FFC9
:1003200010B900208DF800009DF8000008BD000005
:1003300038B50024009313460A460146034801F0ED
:100340002DFC00B10124204638BD0000D80000205B
:1003500038B50024009313460A460146034801F0CD
:100360000DFD00B10124204638BD0000D80000205A
:10037000FEE70000014800F07BB800007800002094
:1003800001681823CAB2103AB2FBF3F2054B6FF3BF
:100390000901032A9B5CC36500D9091D81650846D4
:1003A00070470000484D000810B5014600208B69D9
:1003B0008A6A4FF0C07453B1B3F5005F15D072B1C3
:1003C000012A0CD0022A0AD0032A09D104E01AB16A
:1003D000012A06D0022A03D1C96AC90100D5012029
:1003E00010BDC96AA142FAD010BD002AF7D0012A77
:1003F000F2D0022AF3D0032AF3D010BD30B504683E
:10040000256825F480252560046863608368402B97
:10041000036803D099600068C26030BD9A600068CC
:10042000C16030BD704772B6FEE70022AFF30080B6
:1004300030B50E4B054601205C7A002C14D1587A59
:100440001C54587A03EB800045605D7A03F1080084
:100450002A54587A421C5A72303008703A20487038
:100460002F208870CC70002030BD00002C2400208C
:100470002DE9F84304464FF00009CDF80090634899
:100480004FF41651A56D0068B0FBF1F72E6894F893
:100490005C10082000FA01F131420FD021680A688F
:1004A00052070BD50A6822F004020A6094F85C1027
:1004B0008840A860606D40F00100606594F85C10B1
:1004C0004FF0010808FA01F0304208D0216849696C
:1004D000090604D5A860606D40F00200606594F8DC
:1004E0005C1004208840304208D0216809688907E0
:1004F00004D5A860606D40F00400606594F85C105D
:1005000010208840304218D021680968090714D5A6
:10051000A86020680168490304D50068000308D575
:10052000A16C07E00168C90503D4016821F0080146
:100530000160216C09B12046884794F85C102020A6
:100540008840304231D021680968C9062DD5A8609D
:1005500094F8350005282068016806D0490347D57E
:10056000006800031DD4616C1CE021F016010160DD
:100570002068416921F080014161206C08B9A06CBC
:1005800020B12068016821F00801016094F85C1036
:100590003F208840A86084F8358084F83490216D2D
:1005A0001FE0E16B09B120468847606D00282BD021
:1005B000606DC00714D0052084F8350020680168FC
:1005C00021F0010101600098401C0090B84203D85E
:1005D00020680068C007F6D184F8358084F834902C
:1005E000E16C002910D001B02046BDE8F043084777
:1005F0000168C905D5D4016821F01001016084F8B3
:10060000358084F83490CCE7BDE8F88314000020EE
:100610002DE9F041044600F0ADF906465CB1022038
:1006200084F83500002584F834502068016821F0F2
:10063000010101600DE00120BDE8F08100F09AF9B0
:10064000801B052805D920206065032084F835002B
:10065000F2E720680068C007F0D1226811682048DE
:100660000140D4E901031843D4E903363343184366
:1006700063691843A3691843E3691843236A18435D
:100680000843616A042903D1D4E90B1319430843D1
:10069000106020684069666A20F0070130460E430A
:1006A000012704280CD1A06A0643E06A40B1204625
:1006B000FFF77AFE20B14020606584F83570BAE714
:1006C000206846612046FFF75BFE94F85C203F21DE
:1006D00091408160656584F835700020ACE70000CA
:1006E0003F8010F02DE9F0410446866D90F834000B
:1006F000002501280DD0012084F8340094F83570CD
:100700000020012F07D084F8340002252846BDE8D8
:10071000F0810220FBE7022784F8357060652046EF
:10072000FFF76CFE94F85C103F208840B0602068B2
:10073000016841F016010160206C20B12068016859
:1007400041F0080101602068016841F00101016089
:10075000DCE7000070B5044600F00CF90546601CAB
:1007600002D004480078044400F004F9401BA04281
:10077000FAD370BD080000202DE9F84FDFF8BCA1C6
:100780000022012503264FF00F090AF1040BAAF1FC
:10079000040E00BF0B6805FA02F42340A34270D197
:1007A0000F7907F00307012F01D0022F16D18768B8
:1007B0004FEA420806FA08FC27EA0C07D1F80CC0F9
:1007C0000CFA08FC4CEA070CC0F808C04768A743BD
:1007D0000C79C4F3001494403C4344600C79E44326
:1007E000A4070AD0C4684FEA420C06FA0CF7BC43CF
:1007F0008F6807FA0CF72743C7600C7904F00304ED
:10080000022C12D1D40800EB840CDCF820405707EE
:10081000FF0E09FA07F824EA0804D1F8108008FA54
:1008200007F848EA0408CCF8208004684FEA420C34
:1008300006FA0CF7BC430F7907F0030707FA0CF729
:10084000274307604C6814F4403F70D03C4C276845
:1008500047F480472760246822F0030704F48044AB
:100860000094384C07EB040CDCF8084897074FEA73
:10087000177809FA08F7BC43334FB84202D1002772
:1008800024E054E0314FB84201D101271EE0304F3F
:10089000B84201D1022719E02E4FB84201D10327F7
:1008A00014E02D4FB84201D104270FE02B4FB8427E
:1008B00001D105270AE02A4FB84201D1062705E0F9
:1008C000284FB84201D1072700E0082707FA08F7A8
:1008D0002743CCF80878DAF800405746D1F804C02E
:1008E0009C435FEACC2C00D51C433C60DBF8004005
:1008F0005F46D1F804C09C435FEA8C2C00D51C43B2
:100900003C60DEF800407746D1F804C09C435FEAC3
:100910008C3C00D51C433C60084F083F3C68D1F834
:1009200004C09C435FEACC3C00D51C433C60521C95
:10093000102AFFF42FAFBDE8F88F0000083C0140FB
:1009400044380240003001400000024000040240F0
:1009500000080240000C0240001002400014024057
:1009600000180240001C02400069084000D001202D
:1009700070470000014880687047000008000020B0
:100980002DE9FF4104460068816800917749784E5F
:100990004FF04027884201D1324600E03A46926843
:1009A000019240688846029001D1304600E0384606
:1009B0004068039060684FF00105B0F5007F1CD0DF
:1009C000D8B1900705D50398000602D5204601F05E
:1009D000ABFB0098C0070FD0029840067FD5216876
:1009E0002046CA68E16A8B1CE3620A80618E491E58
:1009F0006186618E002967D071E00098800719D563
:100A00000298000616D5616A20468A1C6262226836
:100A10000988D160618D491E6185618D51B9016878
:100A20004A6822F0A0024A60418E19B980F841500C
:100A300000F0A0F80198C00705D00398400602D541
:100A4000204601F041FB0198400622D5039880061C
:100A50001FD52168414501D1304600E03846406845
:100A600020F0600101D1304600E038464160206846
:100A7000416821F0A00141602068C1688068019050
:100A800084F84150606C40F002006064204600F041
:100A900072F80098000767D50298800664D5206830
:100AA000416821F0A00141602168414501D13046F3
:100AB00000E03846406820F0600000D03E4670609C
:100AC00020688068009043E001684A6822F0600274
:100AD0004A60418D19B980F8415000F04BF80098F8
:100AE00040061ED5029880061BD52068416821F07B
:100AF000600141602168414501D1304600E038463F
:100B0000406820F0A00101D1304600E03846416045
:100B100084F84150606C40F002006064204600F0B0
:100B20002AF8019800071FD5039880061CD5216874
:100B3000414501D1304600E03846406820F0A00031
:100B400000D03E4670602068416821F0600141603D
:100B500084F84150606C40F00400606404B02046AA
:100B6000BDE8F04100F007B8BDE8FF810038004063
:100B70000034004070477047416B08472DE9F0474B
:100B8000040005D094F841004FF0000818B109E0C6
:100B90000120BDE8F08784F840805148606320461A
:100BA00000F0A6F8022684F841602068C16940F68A
:100BB000BF77B943C1612068066260694FF400796C
:100BC00002282FD0E06870B12025A068202800D826
:100BD0006D00012000F044FA216949451FD1E16808
:100BE00019B1A90002E01025EFE7E900B0FBF1F030
:100BF00000EB800061694000B0FBF1F0401D0A216C
:100C0000B0FBF1F000F00101401A40080902821E19
:100C1000FE2A09D3606C40F010006064B8E7B0FBB6
:100C2000F5F0E5E70220002122690843024320682D
:100C30000262D4E901010843A269E1681143084353
:100C40002168CA69BA43104340F40060C861206A51
:100C500001283AD12348606323482168234A4FF092
:100C60004023814201D1114600E01946C96921EAB9
:100C7000070101D1154600E01D46E9612168814266
:100C800001D1114600E019460E622568854201D166
:100C9000114600E01946C9698EB2616849451BD00A
:100CA000D1B100212789B4F80CC047EA0C07B4F889
:100CB00018C04CEA010C47EA0C07B9B2314341F4C1
:100CC0000061854200D01A46D161C4F844800120F9
:100CD00084F8410000205CE74FF48071E2E70000F7
:100CE000DF2100088109000800380040003400407E
:100CF0002DE9F0418AB0064614216846FFF798FABC
:100D0000002505950695079508953649306888426F
:100D100065D10120059032200224CDE9060405A802
:100D200000F0CEF908B1FFF77EFB2F48016841F4CF
:100D30008041016000682C4900F48040103909901E
:100D4000086840F004000860086800F0040009909A
:100D5000086840F0020008600868DFF8908000F042
:100D60000200099004208DE831000620CDE90350EF
:100D700069464046FFF700FD48208DE83100052711
:100D8000CDE9035769464046FFF7F6FCB8028DE807
:100D90003100CDE9035769461548FFF7EDFC164CC5
:100DA0001448C4E900054020C4E90205000120619F
:100DB000400060618000C4E9060525622046656246
:100DC000FFF726FC08B1FFF72EFBB46300221146A3
:100DD0002420A66300F012F9242000F001F90AB0E3
:100DE000BDE8F08100380040403802400008024071
:100DF000000402407060024078000020704700004C
:100E000070B5044629B122B194F84100012833D1CC
:100E100001E0012070BD94F8400001282CD001268B
:100E200084F84060032084F8410000256564616215
:100E30002068C06900F0070003281FD005281DD0D6
:100E400022856285A16B1B480864A16B1A48C863A0
:100E5000A16B1A48C864238D2268616A0C32A06BAA
:100E6000FFF740FC88B154F8440F40F0080044F804
:100E7000040966702570CCE7022070BD4FF6FF7044
:100E800000EA420020856085DCE784F84050206855
:100E90004168890703D4416841F00201416020683C
:100EA000C169490503D4C16941F48061C161002071
:100EB00070BD0000D5210008B1210008892100087B
:100EC00070B5144801784FF40062134C550091B18D
:100ED000002101704168491C4160A4F500510F4890
:100EE000FFF78EFF0B4B2A4608332146BDE87040C2
:100EF0000B4803F093B9012101704168491C41601E
:100F000021460648FFF77CFF024B2A460833054975
:100F1000ECE70000200000203844002030000020D2
:100F2000DC1100203824002070470000024881684E
:100F30000278114481607047080000200B4810B50A
:100F4000016841F400710160016841F48061016051
:100F5000016841F480710160032000F06FF80F20F8
:100F600000F006F800F024F8002010BD003C02401C
:100F700070B50D4D04464FF47A712878B1FBF0F04E
:100F80000A490968B1FBF0F000F0D0FF48B9102C15
:100F900007D200222146501E00F030F800206C607D
:100FA00070BD012070BD000008000020140000206A
:100FB0000A4808B5016841F480410160006800F406
:100FC000804000900548001F016841F08051016099
:100FD000006800F08050009008BD000044380240D6
:100FE000002809DB00F01F02012191404009800028
:100FF00000F1E020C0F8001170470000F0B40E4B83
:101000001B680C46C3F30223C3F10705042D00D966
:101010000425191D072901D2002300E0DB1E01264B
:1010200006FA05F1491E214099409E40761E164061
:101030003143F0BC02F0B8B80CED00E0064900F016
:10104000070208684FF6FF03184040EA0220034AEF
:1010500010430860704700000CED00E00000FA0546
:1010600001460020012908D11149096811F4000145
:1010700004D0B1F5000F00D10E4870470C48001F96
:1010800001680068490200F03F0001D50A4900E00C
:101090000A49074AB1FBF0F07C321168C1F38811AC
:1010A00041431068C0F30270B1FBF0F070470000DC
:1010B000083802400080BB0040787D010024F40025
:1010C0002DE9F843054600684FF00109C1074FF0CC
:1010D000000601D1400727D5DFF80C81C8F8686009
:1010E000FFF748FC0746414C05E000BFFFF742FC14
:1010F000C01B022857D820680001F7D46868810116
:10110000287A41EA0070394984310860C8F868904B
:10111000FFF730FC074604E0FFF72CFCC01B022859
:1011200041D820680001F7D52878800752D52F488C
:101130004030016841F08051016000682C4C00F0A3
:1011400080500090206840F480702060FFF712FC0F
:10115000074604E0FFF70EFCC01B022823D82068D6
:10116000C005F7D5214C7034206810F4407020D0B1
:10117000A98901F4407181421BD020681D4920F4E7
:101180004070C1F800900E6020602068C00710D049
:10119000FFF7F0FB064641F2883707E0FFF7EAFB6E
:1011A000801BB84202D90320BDE8F883206880077D
:1011B000F4D5E9680D48C1F301220830032A0BD0A9
:1011C000016821F4F81101602068A989C1F30B01BD
:1011D000084320600020E7E70268074B22F4F8127A
:1011E00019400A430260EFE700004742003802401E
:1011F00000700040400E4742FFFCFF0F2DE9F04712
:101200000E46050065D0DFF81481D8F80000F7B26B
:1012100000F00700B04207D288F80070D8F800004C
:1012200000F00700B04254D128683D4C810712D528
:10123000400703D5206840F4E0502060287800077C
:1012400003D5206840F4604020602068A96820F041
:10125000F000084320602878C0072DD03049686826
:101260000839012812D0022813D0032811D00968A8
:10127000890700292DDA216821F00301014321604B
:10128000FFF778FB814641F2883A0EE0096889034E
:10129000EFE709688901ECE7FFF76CFBA0EB0901B8
:1012A000514502D90320BDE8F0872068696800F045
:1012B0000C00B0EB810FEFD1D8F80010404601F0E0
:1012C0000701B14207D90770006800F00700B0427B
:1012D00001D00120E7E72878400705D52068E968B4
:1012E00020F4E050084320602878000706D52068E5
:1012F000296920F4604040EAC100206000F038F81D
:101300002168084AC1F30311515CC84006490860CE
:1013100006480068FFF72CFE0020C4E7003C0240AE
:1013200008380240504D0008140000200C00002036
:101330000448054900680968044AC1F38221515CE8
:10134000C84070471400002008380240604D000873
:101350000448054900680968044AC1F34231515CF8
:10136000C84070471400002008380240604D000853
:10137000154810B5006810F00C02144813D0144939
:10138000042A0FD0082A0ED10F4C241F226823688C
:1013900002F03F025B0207D52068C0F38810A0FB73
:1013A000010106E0084610BD2168C1F38811A1FBC8
:1013B00000010023FEF704FF2168C1F30141491C2D
:1013C0004900B0FBF1F010BD083802400024F400E1
:1013D00040787D012DE9F84F04006ED02078DFF8C9
:1013E0004C93C007A9F104054AD009F10400016833
:1013F000C1F38101012908D00068C0F381000228EF
:101400000AD1D9F80000400206D52868800337D5F4
:1014100060680028E1D033E06068B0F5803F10D00C
:10142000B0F5A02F286810D020F4803028602868FC
:1014300020F4802028606068A8B1FFF79BFA064678
:101440000DE0286840F48030F4E740F48020286004
:10145000F7E700BFFFF78EFA801B642873D828686F
:101460008003F7D50CE0FFF785FA064605E000BFDC
:10147000FFF780FA801B6428F0D828688003F7D42F
:101480002078DFF8AC8280074FF0000A3ED5A748ED
:10149000001D016811F00C0F08D00068C0F3810036
:1014A00002280BD1D9F80000400207D42868800731
:1014B00016D5E068012800D112E033E1E068B8B148
:1014C0000120C8F80000FFF755FA064605E000BF06
:1014D000FFF750FA801B0228C0D828688007F7D58C
:1014E0002868216920F0F80040EAC10028600DE07A
:1014F000C8F800A0FFF73EFA064604E0FFF73AFA04
:10150000801B02281FD828688007F7D4207800079E
:1015100022D5864F87486169703771B1012101601A
:10152000FFF728FA064604E0FFF724FA801B02289A
:1015300009D838688007F7D50EE0C0F800A0FFF79B
:1015400019FA064605E082E0FFF714FA801B02282C
:101550007DD838688007F7D42078400768D5DFF851
:10156000CCB100270BF13C0BDBF80000C0000BD422
:10157000DBF8001041F08051CBF80010DBF80000E0
:10158000012700F0805000906B4E3068C00510D4E9
:10159000306840F480703060FFF7ECF9009005E0AF
:1015A000FFF7E8F90099401A022850D83068C005C2
:1015B000F6D55E4EA0686C3601280FD0052830683D
:1015C00010D020F001003060306820F0040030605E
:1015D000A068B8B1FFF7CEF900900FE0306840F096
:1015E0000100F4E740F004003060F7E7FFF7C2F9CC
:1015F0000099411A41F28830814266D830688007EC
:10160000F4D50EE0FFF7B6F9009007E0FFF7B2F966
:101610000099411A41F28830814256D830688007DB
:10162000F4D42FB1DBF8001021F08051CBF800107A
:10163000A069C8B33D49091D0968C1F381010229A8
:101640004AD00228504607D0C8F8600000E03CE0CD
:10165000FFF790F904463BE04746C8F86000FFF703
:1016600089F9064605E000BFFFF784F9801B0228D0
:101670002BD828688001F7D4D4E907010843A16A70
:101680002E4A490802EB0141626A41EA821108438D
:1016900094F82C1040EA0161C9F800100120386666
:1016A000FFF768F9044606E03EE000BFFFF762F985
:1016B000001B022809D828688001F7D534E000BF54
:1016C000FFF758F9001B022802D90320BDE8F88F64
:1016D00028688001F4D427E00128F7D0D9F8000069
:1016E000E26900F4800191421CD1226A00F03F01BE
:1016F000914217D147F6C071626A0140B1EB821F77
:1017000010D1A26A4FF0FF3300F4403103EB5202D4
:10171000B1EB024F06D194F82C1000F07060B0EBE2
:10172000016F01D00120D1E70020CFE7043802404B
:1017300000004742800E4742007000400000FFFF5B
:101740002DE9FE430446002603200D4684F83400AC
:10175000606C03285ED0B5F5805F5BD04FF4006706
:1017600000204FF08068BD421FD18146009001905B
:101770000021206800F081FE800113D469462046D4
:1017800001F0B8F907000DD10198400334D5B4F841
:1017900050000104206800F0A1FE070002D10221E0
:1017A000206823E0A06B384328E01DB1A06B40F017
:1017B000006023E08146009001900021206800F045
:1017C0005CFE8001EED46946204601F093F90700E3
:1017D000E8D10198C0030FD5B4F850000104206887
:1017E00000F07CFE0700DDD10021206800F0C3FE80
:1017F0000700D7D14F46D5E74746D3E7A063A06B94
:10180000144F4FF0010848B12068876384F8348092
:1018100001260EE0A06B40F08050EFE7211DD4E9D7
:10182000050C0EC9CDE90050CDF808C0206800F0C5
:1018300027FE4FF40071206800F084FE28B1216873
:101840008F63A16B0143A163012684F83480304685
:10185000BDE8FE83FF054000F0B5426E920F0A70AE
:10186000426EC2F383624A70426EC2F301628A70B2
:10187000426E120CCA70B0F86420120A0A7190F815
:1018800064204A71826E120DCA80826EC2F30342D6
:101890000A72B0F86820C2F3C0324A72B0F8682009
:1018A000C2F380328A72B0F86820C2F34032CA7242
:1018B000B0F86820C2F300320A7300264E73426CFF
:1018C0004FF40075012462B1012A3AD002684749F9
:1018D0009163816B41F08051816380F83440012035
:1018E000F0BDB0F86820C36E9205120D42EA937203
:1018F0000A61C26EC2F3C2620A75C26EC2F30262AC
:101900004A75C26EC2F342528A75C26EC2F38242F7
:10191000CA75C26EC2F3C2320A760A69521C4265A7
:101920000B7E03F007039B1C9A4042650B7A03F081
:101930000F0704FA07F383655B0A5A43C0E91725CA
:101940000EE090F86820C36E9206920A42EA1342B3
:101950000A610A69521C92024265C0E91652056684
:1019600030F86C2FC2F3803201F8192F0288C2F3CD
:10197000C6124A70027802F07F028A704268D20F63
:10198000CA704268C2F341720A714268C2F382624D
:101990004A714268C2F383528A714268C2F340526C
:1019A000CA710E724268C2F300424A728288C2F360
:1019B000C0328A728288C2F38032CA728288C2F3CD
:1019C00040320A738288C2F300324A738288C2F3BB
:1019D00081228A738288C2F30122CA730079C0F31C
:1019E000460008744C740020F0BD0000FF05400064
:1019F000426C0A60826C4A60C26C8A60026DCA6086
:101A0000426D0A61826D4A61C26D8A61006EC86171
:101A10000020704770B50446B0F85000002501045E
:101A2000206800F090FE18B1A16B0143A16304E0AF
:101A30000021206800F021FD0546C5F3432070BD5C
:101A400070B504000ED094F83400002518B925773D
:101A5000204600F04DF8032084F83400204600F0C2
:101A60000BF808B1012070BDA5632563012084F83F
:101A70003400002070BD0000FEB50025044676202D
:101A80000095CDE901502B462A462946206800F0F2
:101A9000F7FC154E46F8A05F206800F003FD012515
:101AA00035600220FEF756FE204601F00BF928B102
:101AB00084F83450A16B0143A16313E0204601F088
:101AC00089F80028F4D14FF40071206800F03AFD45
:101AD000002808D0226805499163A16B0143A163E6
:101AE00084F834500120FEBD00802542FF054000EF
:101AF0002DE9F04387B0044614216846FEF798FBB1
:101B00002249206888423ED121484FF000090168EF
:101B100041F400610160006800F4006005901C4819
:101B20001438016841F004010160016801F004010A
:101B30000591016841F0080101600068022400F08D
:101B4000080005904FF4706001278DE8910003258F
:101B50000C26DFF84080CDE9035669464046FEF783
:101B60000BFEE0028DE81102CDE9035669464046BE
:101B7000FEF702FE04208DE89100CDE90356694688
:101B80000548FEF7F9FD07B0BDE8F083002C0140E1
:101B90004438024000080240000C02402DE9F04F9A
:101BA00087B09B4616460D460446FEF7E3FE0090BE
:101BB0003DB194F83400012807D0A06B40F00050EC
:101BC0000DE0A06B40F0006009E00020A063E26D32
:101BD00006EB0B01914204D9A06B40F00070A063AA
:101BE0008AE0032184F834102168C862616C0129FD
:101BF00000D076024FF0FF3101914FEA4B21029164
:101C00004FF0010803AA902102278146CDF81880E1
:101C100082E8820201A9206800F019FCBBF1010FE3
:101C200005D927633146206800F0FEFC05E0C4F8C2
:101C300030803146206800F010FDDFF83CA130B163
:101C40002268C2F838A0A16B0143A16350E0029E54
:101C50001FE0406B000413D596B10027206800F008
:101C600025FC05F8010B010A05F8011B010C05F81C
:101C7000021B000E361F7F1C05F8010C082FEDD348
:101C8000FEF778FE01460098091A1098814220D28A
:101C9000F8B12068426B40F22A310A42D9D0416B38
:101CA000C90509D5BBF1010F06D9616C032903D021
:101CB00000F07AFD0028C3D12068416B090702D4E7
:101CC000416B89051AD5C0F838A0A06B40F0080018
:101CD00050E02168C1F838A0A06B40F00040A0633C
:101CE00084F83480C4F83090032007B0BDE8F08F4A
:101CF00084F83480C4F830900120F6E7416B8907FE
:101D000005D5C0F838A0A06B40F0020032E0416B6E
:101D100089061BD5C0F838A0A06B40F0200029E050
:101D200000F0C4FB05F8010B010A05F8011B010CCA
:101D300005F8021B000E05F8010C361FFEF71AFE0F
:101D40000099411A109881420ED268B12068416B07
:101D5000890201D5002EE3D1216840F23A50886310
:101D600084F834800020C0E72168C1F838A0A06B57
:101D700040F00040A063BBE7FF0540002DE9F04FB5
:101D80008DB09B4616460D460446FEF7F3FD0A90BD
:101D90003DB194F83400012807D0A06B40F000500A
:101DA0000DE0A06B40F0006009E00020A063E26D50
:101DB00006EB0B01914204D9A06B40F00070A063C8
:101DC0007AE0032184F834102168C862616C01292B
:101DD00000D076024FF0FF3103914FEA4B2104917E
:101DE0009021CDE905104FF00109CDE907098246A0
:101DF00003A9206800F02BFBBBF1010F06D92020BE
:101E000020633146206800F0E9FC05E010202063E3
:101E10003146206800F0FBFC5FEA000806D021682C
:101E200041488863A06B40EA080074E0049E27E004
:101E3000406B40041CD5DEB15FF0000715F8010BC4
:101E4000009015F8011B361F40EA0120009015F89C
:101E5000021B40EA0140009015F8011C40EA0160B5
:101E600000906946206800F034FB7F1C082FE5D302
:101E7000FEF780FD0A99411A1698814220D2F8B1E6
:101E80002068416B40F21A321142D1D0416BC90532
:101E900023D5BBF1010F20D9616C03291DD000F0BF
:101EA00083FCD0B1226820499163A16B0143A163F7
:101EB00084F83490C4F830A001200DB0BDE8F08F54
:101EC000216819488863A06B40EA0800A06384F881
:101ED0003490C4F830A00320EFE72068416B090775
:101EE00002D4416B890505D50F498163A06B40F091
:101EF000080010E0416B890705D50B498163A06B91
:101F000040F0020007E0416BC90606D5064981632F
:101F1000A06B40F01000A063CAE740F23A51816321
:101F200084F834900020C8E7FF05400010B5401E3B
:101F3000B0F1807F01D3012010BD4FF0E02460613B
:101F40000F21601701F030F90020A0610720206107
:101F5000002010BD70B5040004D094F841000025A5
:101F600010B106E0012070BD84F84050204600F01A
:101F700023F8242084F841002068C16821F400512E
:101F8000C160204600F0DEFF2068016921F4904125
:101F900001612068416921F02A0141612068C1681E
:101FA00041F40051C1606564202084F8410084F848
:101FB00042006563002070BD10B586B00446142150
:101FC0006846FEF735F914492068884221D1134844
:101FD0000021026842F010020260006800F0100068
:101FE00005900E481438026842F001020260006851
:101FF00000F0010005904FF4C06000900220CDE990
:102000000101032003900720049069460448FEF76D
:10201000B3FB06B010BD0000001001404438024080
:10202000000002402DE9F843044690F8410098462C
:1020300016460D46202802D00220BDE8F88385B15F
:102040007EB100206064212084F84100FEF792FCFC
:10205000A6848146E684A0682027B0F5805F02D080
:1020600003E00120E9E7206910B12E4600250EE0CB
:1020700000260CE08021204600F0EAFFA8B9C6B196
:1020800016F8010B21684860E08C401EE084E08C6B
:102090004B464FF00002CDF800800028EAD14FF007
:1020A0004001204600F0D4FF40B184F84170032085
:1020B000C3E735F8020BC0F30800E3E784F841708A
:1020C0000020BAE7FEE7000070B515490268154B1D
:1020D0004FF040248A4201D11A4600E02246D568DA
:1020E000C26A961CC6621580428E521E4286428E7D
:1020F000002A14D102688A4201D1194600E0214623
:10210000496821F0600100D023465960418D0029C3
:1021100005D14FF0010180F84110FEF72BFD70BD95
:10212000003800400034004070B5416A144B8A1CEE
:10213000426205680988134A4FF040249D4201D14C
:10214000154600E02546E960418D491E4185418DD7
:10215000002914D10168994201D1114600E02146BD
:10216000496821F0A00100D022465160418E00292B
:1021700005D14FF0010180F84110FEF7FBFC70BD66
:10218000003800400034004010B5806B01684A6898
:1021900022F003024A60002141854186012180F836
:1021A0004110416C41F008014164FEF7E4FC10BDB0
:1021B00010B50146806BC96949B901684A6822F0C7
:1021C00002024A6000214185012180F84110FEF79A
:1021D00077FE10BD10B5806BFEF7A6FE10BD7CB576
:1021E000016804468868009094F84100012504289D
:1021F00034D10098C00718D04868C043400614D4B2
:10220000C9682046E26A1180E16A891CE162618E38
:10221000491E6186618E41B901684A6822F06002F8
:102220004A6080F84150FEF7E9FD0098400615D558
:1022300020684168C943890610D4416821F06001D3
:1022400041602068C1688068019084F84150606CEA
:1022500040F0020060642046FEF78DFC94F84100D7
:10226000032834D10098800719D521684868C043F5
:10227000000614D4626A20461288CA60616A891C0A
:102280006162618D491E6185618D41B901684A684D
:1022900022F0A0024A6080F84150FEF711FE00983B
:1022A000000714D520684168C94389060FD44168E6
:1022B00021F0A001416020688068009084F84150BE
:1022C000606C40F0040060642046FEF754FC7CBD66
:1022D000094808B5016841F4001101600068002256
:1022E00000F40010009011460F20FEF787FEBDE8B5
:1022F00008400F20FEF774BE3038024010B5044984
:102300000448FEF792F80249491E087010BD00000B
:1023100002000020344D000800B587B01421684643
:10232000FDF786FF1A480021026842F08002026031
:10233000026802F080020592026842F00402026024
:10234000026802F004020592026842F00202026092
:10235000026802F002020592026842F00102026085
:10236000026802F001020592026842F0080202606F
:10237000006800F0080005904FF40040CDE900012E
:102380000120029069460348FEF7F6F907B000BD48
:1023900030380240000002400C490D4810B54A1583
:1023A000C0E9001200218160C0E903124AF64442EC
:1023B000C0E90521C16101210162FEF7DFFB0028B0
:1023C00003D0BDE81040FEF72EB810BD0038004025
:1023D0003000002010B50D480B490022C0E9001262
:1023E0008260C26042618261CC140261FFF728FB07
:1023F00021460648FFF7A4F9002803D0BDE81040A5
:10240000FEF711B810BD0000002C0140D8000020DC
:102410000C4810B50A4901604FF4E13141600021D8
:1024200081600C22C160C0E904128161C161FFF7C3
:1024300091FD002803D0BDE81040FDF7F4BF10BDAA
:10244000001001405C010020FEE7FEE770470A68CB
:1024500042624A688262D1E902231A43D1E9043117
:102460000B43C16A1A4321F0F7011143C1620020F6
:102470007047006800F003007047084440697047E7
:1024800070B50DF1100C11439CE870002343194303
:1024900029434268314347F6FF639A430A43426047
:1024A000002070BD0321016000207047D0F880003B
:1024B00070470A688260D1E901231A43D1E90331E8
:1024C0000B43C1681A436FF30B011143C160002035
:1024D00070470968C0F880100020704710B585B0BB
:1024E00004463720CDE900104020029000200390E0
:1024F0004FF48060049069462046FFF7DAFF41F20E
:1025000088323721204600F09BF905B010BD00004D
:1025100010B504460A4885B001432920CDE90010D2
:1025200040200290002003904FF4806004906946A0
:102530002046FFF7BEFF204600F03AFA05B010BD76
:102540000000108010B585B004461020CDE90010C1
:1025500040200290002003904FF480600490694670
:102560002046FFF7A6FF41F288321021204600F0F6
:1025700067F905B010BD10B585B004460620CDE959
:10258000001040200290002003904FF480600490DF
:1025900069462046FFF78DFF41F28832062120462A
:1025A00000F04EF905B010BD30B585B000240546E9
:1025B000009401944FF480600294CDE90340694691
:1025C0002846FFF776FF0B484FF4FA510068B0FB3E
:1025D000F1F041F288314843401E03D24FF00040F1
:1025E00005B030BD696B0906F6D5C520A863204645
:1025F000F6E700001400002010B585B004464FF443
:10260000D570009008200190402002900020039097
:102610004FF48060049069462046FFF74AFF204649
:1026200000F02CFA05B010BD10B585B0044612209C
:10263000CDE9001040200290002003904FF480600C
:10264000049069462046FFF734FF41F28832122198
:10265000204600F0F5F805B010BD10B585B0044671
:102660001120CDE9001040200290002003904FF48B
:102670008060049069462046FFF71BFF41F28832D4
:102680001121204600F0DCF805B010BD10B585B072
:1026900004460720CDE9002040200290002003904E
:1026A0004FF48060049069462046FFF702FF41F234
:1026B00088320721204600F0C3F805B010BD10B5E0
:1026C00085B0044600210220CDE90010C020CDE9EC
:1026D00002014FF48060049069462046FFF7E9FE4E
:1026E000204600F03DF905B010BD10B585B0044698
:1026F0000920CDE90010C0200290002003904FF483
:102700008060049069462046FFF7D3FE204600F023
:1027100027F905B010BD10B585B00446002133205F
:10272000CDE900104020CDE9020100010490694686
:102730002046FFF7BEFE41F288323321204600F0EA
:102740007FF805B010BD10B585B004460D20CDE969
:10275000001040200290002003904FF4806004900D
:1027600069462046FFF7A5FE41F288320D2120463A
:1027700000F066F805B010BD30B585B00C460546D2
:1027800000210320CDE900104020CDE90201000125
:10279000049069462846FFF78CFE2246032128460E
:1027A00000F028F905B030BD10B585B00446002111
:1027B0000C20CDE900104020CDE902010001049079
:1027C00069462046FFF775FE034A0C21204600F0BB
:1027D00037F805B010BD000000E1F50510B585B073
:1027E00004461920CDE900104020029000200390FB
:1027F0004FF48060049069462046FFF75AFE41F28C
:1028000088321921204600F01BF805B010BD10B524
:1028100085B004461820CDE9001040200290002029
:1028200003904FF48060049069462046FFF741FE14
:1028300041F288321821204600F002F805B010BDA0
:10284000454B10B51B684FF4FA54B3FBF4F35343F4
:102850005B1E02D24FF0004010BD426B12F0450FDC
:10286000F6D01205F4D4426B520703D504218163DC
:10287000084610BD426BD20702D00121816305E0FA
:10288000C52282630269D2B28A4201D0012010BD02
:102890000021FFF7F2FD3149084201D1002010BDAF
:1028A000002802DA4FF0007010BD410001D5402031
:1028B00010BD810001D5802010BDC10002D54FF4AC
:1028C000807010BD010102D54FF4007010BD4101B0
:1028D00002D54FF4806010BDC10102D54FF40060F5
:1028E00010BD010202D54FF4805010BD410202D547
:1028F0004FF4005010BD810202D54FF4804010BD4E
:10290000C10202D54FF4004010BD410302D54FF47F
:10291000003010BD810302D54FF4802010BDC103EB
:1029200002D54FF4002010BD010402D54FF48010F1
:1029300010BD410402D54FF4001010BD810402D532
:102940004FF4800010BD000702D54FF4000010BD09
:102950004FF4803010BD00001400002008E0FFFD9F
:1029600012494FF4FA520968B1FBF2F141F2883290
:102970005143491E02D24FF000407047426B12F0A3
:10298000450FF6D01205F4D4416B490703D5042155
:10299000816308467047416BC90703D001218163F9
:1029A00008467047C521816300207047140000204D
:1029B0000F494FF4FA520968B1FBF2F141F2883243
:1029C0005143491E02D24FF000407047426B12F053
:1029D000450FF6D01205F4D4416B490703D5042105
:1029E000816308467047C52181630020704700005D
:1029F0001400002030B5204B4FF4FA541B68B3FB91
:102A0000F4F341F2883463435B1E02D24FF000407E
:102A100030BD446B14F0450FF6D02405F4D4436B5D
:102A20005B0703D504218163084630BD436BDB0798
:102A300002D00121816303E00369DBB28B4201D044
:102A4000012030BDC52181630021FFF716FD10F480
:102A5000604F04D0410406D54FF4005030BD000C47
:102A60001080002030BD000402D54FF4805030BDEE
:102A70004FF4803030BD00001400002014494FF4A2
:102A8000FA520968B1FBF2F141F288325143491E12
:102A900002D24FF000407047426B12F0450FF6D063
:102AA0001205F4D4416B490703D50421816308461C
:102AB0007047416BC90703D0012181630846704705
:102AC000416B490601D54021816300207047000019
:102AD0001400002010B5064C01202070FDF7F6FB15
:102AE00018B9207820F001002070207810BD000077
:102AF000000000202DE9F04788B00D460446FDF7A0
:102B000039FF002682460096019637460821206844
:102B1000FFF718FD00282CD1B4F8500001042068FC
:102B2000FFF7DCFC002824D1401E4FF00808CDE957
:102B3000020830204FF00209CDE904090120CDE957
:102B4000067002A92068FFF782FC2068FFF7E3FD0A
:102B500000280ED16F462068416B11F02A0F0BD070
:102B6000416B090702D4416B89051AD5C0F838803A
:102B7000082008B0BDE8F087416B890205D5FFF752
:102B800095FC47F82600761C02E0416B8904E7D5E6
:102B9000FDF7F0FEA0EB0A00401CDCD14FF0004036
:102BA000E7E7416B890703D5C0F838900220E0E7DA
:102BB000416B890603D5202181630846D9E740F29D
:102BC0003A518163019800BA2860009800BA6860A1
:102BD0000020CEE710B590B004460120ADF83800D3
:102BE0002068FFF746FC002854D0606C032842D0D0
:102BF0002068FFF764FD00284AD100212068FFF714
:102C00003CFC606704212068FFF737FCA0670821BF
:102C10002068FFF732FCE0670C212068FFF72DFCED
:102C2000C4F88000606C032825D00EA92068FFF747
:102C3000A3FD00282CD1606C03281CD0BDF83800FF
:102C4000206501042068FFF750FD002820D10021F5
:102C50002068FFF712FC606604212068FFF70DFC76
:102C6000A06608212068FFF708FCE0660C212068B8
:102C7000FFF703FC206704212068FFF7FEFB000D2F
:102C8000E06403A92046FEF7E7FD30B14FF0805025
:102C900010B010BD4FF08060FAE7B4F85000002388
:102CA00002042068FFF7F2FC0028F1D104F11000C3
:102CB00007C88DE8070094E80F00FFF7E1FB00204C
:102CC000E6E700002DE9F84F002604460096354659
:102CD000B0460068FFF768FC002827D12068FFF79E
:102CE0008BFC4FF0805B4FF001094FF6FF7748B146
:102CF000A6642068FFF758FC002817D1A06C0128B3
:102D000002D020E0C4F8489000212068FFF7E6FBDD
:102D100058B918E000212068FFF7E0FB002805D132
:102D200051462068FFF7F4FB10B15846BDE8F88F14
:102D300000212068FFF7A1FB05464FEAD0780098F4
:102D4000401C009002E0DFF82CA00098B84202D2AC
:102D5000B8F1000FDED00098B84202D34FF0807077
:102D6000E4E7680002D5C4F8449000E066640020FF
:102D7000DCE70000000010C170B5064C05460120DC
:102D80002070FDF7AFFA18B92846FFF7A3FE2070B0
:102D9000207870BD0000002010B5124888B014469D
:102DA0000078C00702D0032008B010BDC1B10129CE
:102DB00005D0022908D003290CD00420F4E7684686
:102DC000FDF77EFA06980AE06846FDF779FA07985B
:102DD000208005E06846FDF773FA0798400A2060F6
:102DE0000020E1E70000002070B51D4616460846A9
:102DF0000124A31E2A463146FDF79AFA28B900BFDE
:102E0000FDF764FA0028FBD10024204670BDFFF7CF
:102E100061BE000070B51D46164608460124A31E7B
:102E20002A463146FDF794FA28B900BFFDF74EFA5D
:102E30000028FBD10024204670BD00000148FDF7AA
:102E40009BBE0000300000207047FEF76FB8000006
:102E500030B593B030216846FDF7EAF914210CA88B
:102E6000FDF7E6F91D480025016841F08051016039
:102E7000006800F0805011901948016841F48041C9
:102E800001600068022400F480401190012003904A
:102E900010200490009406940820CDE90750A82043
:102EA000CDE9090407200B906846FEF793FA08B1B4
:102EB00072B6FEE70CA90F2081E831004FF4A05054
:102EC0000F904FF48050109005210CA8FEF796F952
:102ED000002801D072B6FEE713B030BD4038024082
:102EE000007000400248016841F4700101607047C1
:102EF00088ED00E001680C3151E8002F22F4907257
:102F000041E80023002BF5D10168143151E8002F6E
:102F100022F0010241E80023002BF5D1016B0129C9
:102F200009D101680C3151E8002F22F0100241E86C
:102F30000023002BF5D1202180F8421000210163ED
:102F40007047000070B5044600680169E26821F42A
:102F50004051114301612169A068E2690843616938
:102F6000114308432168CA6849F20C639A4302433B
:102F7000CA6020684169A26921F44071114341612E
:102F800031492068884202D03049884202D1FEF798
:102F9000DFF901E0FEF7CCF9E2690023192164258D
:102FA0003226B2F5004F626828D0A0FB0101930FD2
:102FB0009200FDF705F90146B0FBF5F06FF018023D
:102FC000504301EB800006EB0010B0FBF5F000F081
:102FD000F002B1FBF5F002EB0012B1FBF5F06FF07F
:102FE0001803584301EB800006EB0010B0FBF5F02E
:102FF00000F00F0021681044886070BDA0FB010143
:1030000092185B41FDF7DCF80146B0FBF5F00201D8
:10301000B1FBF5F06FF01803584301EB800006EBAD
:10302000C000B0FBF5F000F0F80002EB4002B1FB8D
:10303000F5F0584301EB800006EBC000B0FBF5F063
:1030400000F00700D6E70000001001400014014026
:103050002DE9F843984617460D460446089E24E09D
:10306000701C22D0FDF786FCA0EB0800B0421AD8F5
:10307000CEB12068C168490717D5802D15D0402DE5
:1030800013D00168C94309070FD4016800254068BF
:1030900000902046FFF72EFF0820606484F840501F
:1030A0000120BDE8F8830320FBE72068006835EACB
:1030B000000004D00020B842D2D00020F1E7012067
:1030C000F9E7FEE710B54FF47A70FDF743FB0122F4
:1030D0001049114800F068FFD0B110A000F040F88E
:1030E000012213A1154800F08BFF2C21134800F09A
:1030F0003DFE134B4FF400521249104801F08EF878
:10310000BDE810404FF400620E490F48FDF778BE4D
:103110000EA0E3E702000020A40100205344E58D47
:10312000A1E68C82E8BDBDE5A4B1E8B4A50D0A0016
:103130006D75736963312E7761760000DC110020B4
:103140002800002038240020300000205344E58D62
:10315000A1E68C82E8BDBDE68890E58A9F0D0A0055
:103160000FB4054B10B503A9044A029800F03CF8CF
:1031700010BC5DF814FB0000594700082C0000202B
:103180000FB4084B10B504A902AA039800F02CF85C
:10319000044602A9002000F03DF9204610BC5DF86D
:1031A00014FB0000153400080907090E002804DB91
:1031B00000F1E02080F80014704700F00F0000F1EB
:1031C000E02080F8141D704702E008C8121F08C1F3
:1031D000002AFAD170477047002001E001C1121F98
:1031E000002AFBD1704700002DE9FF4F8BB09A46B3
:1031F0000F460446002606E025280BD052460D99BE
:103200009047641C761C20780028F5D10FB030461A
:10321000BDE8F08F0025A94601227D4900E0054365
:1032200014F8013F203B02FA03F00842F7D120785E
:103230002E2817D114F8010F45F004052A280ED0C6
:103240006FF02F022078A0F1300109290AD809EB8C
:10325000890102EB410100EB0109641CF2E757F818
:10326000049B641C20786C280DD004DC4C2812D000
:103270006A2811D104E074280DD07A280CD10AE014
:1032800045F4001507E0617845F48015814202D1CC
:10329000641C05F58015641C207869283ED006DC86
:1032A0000028B3D063280BD0642804D136E07328FB
:1032B00010D075285CD052460D999047761CA5E039
:1032C00017F8040B8DF8000000208DF80100E84687
:1032D000012003E057F8048B4FF0FF3069074FF0EF
:1032E000000501D40AE06D1C4D450DDA8542FADB7C
:1032F00018F805100029F6D106E06D1C8542FCDBAC
:1033000018F805100029F8D12E4404E018F8010B34
:1033100052460D9990476D1EF8D277E000200A9032
:10332000C5F302504FF00A0B02280CD001CFC11791
:10333000021E71F100020CDA0023D0EB030063EBF4
:1033400001012D2208E0FF1D27F00707F7E8020121
:10335000EEE72A0504D52B228DF82420012203E074
:10336000EA070FD02022F7E70DF12008089218E0B5
:1033700000200A90C5F302504FF00A0B022803D038
:1033800001CF00210022EFE7FF1D27F00707F7E834
:103390000201F7E75A460A9BFCF712FF303208F8A1
:1033A000012D50EA0102F5D1ADEB080000F1200B30
:1033B000680701D44FF00109D94502DDA9EB0B00E4
:1033C00000E000208146002506E009A85246405D45
:1033D0000D9990476D1C761C08988542F5DB04E03A
:1033E000302052460D999047761CB9F10001A9F1A1
:1033F0000109F5DC05E018F8010B52460D999047DC
:10340000761CBBF10001ABF1010BF4DC641CFAE6A5
:10341000092801000A68531C0B60107070470000F7
:1034200010B504460020E070401E6063204601F0A5
:103430002CFB08B1042010BD04F2362001F0CAFABA
:10344000A0F52A41553901D0032010BD94F8380069
:10345000E92805D0EB2814D194F83A00902810D12F
:1034600004F16E0001F0ABFA0749B1EB002F06D072
:1034700004F18A0001F0A3FA0449884201D1002036
:1034800010BD022010BD0000004641544641543397
:1034900000E0401C02780AB18A42FAD1D0B27047EB
:1034A000F0B50022144D134605EB021426685EB1F8
:1034B0000768BE4209D166688768BE4205D1A46824
:1034C0004669B44204D000E00123521C022AEBD327
:1034D000022A01D069B904E04BB9022907D01220B1
:1034E000F0BD05EB02108089B0F5807F01D000208F
:1034F000F0BD1020F0BD00000C22002030B50021EE
:10350000054B0C4603EB01121568854200D114608F
:10351000491C0229F6D330BD0C2200200268C06A83
:10352000938952895343B1FBF3F1001D04C81AB1CA
:10353000914203D3891AF8E70020704700680844D5
:103540007047C269891E921E8A4201D800207047C6
:10355000026B408901FB0020704700002DE9F05FFD
:1035600082460C4601F11A0001F034FA78BB20784B
:10357000012700F03F00401E00EB8001DFF858906B
:1035800001EBC00500264FF6FF7B00BF19F80600CF
:10359000204401F01FFA80466FB1FF2D17D200F0D2
:1035A00015FF07463AF815006D1C00F00FFF874223
:1035B0000DD1474601E0D84509D1761C0D2EE5D343
:1035C0002078400606D52FB13AF8150010B100203A
:1035D000BDE8F09F0120FBE7E84D00082DE9F04130
:1035E00005680F00804606D001F002F9022809D2D2
:1035F0000120BDE8F0816E6916B1E869B04207D8D4
:10360000012605E0411CF4D0E9698142F1D83E462B
:103610003446E869641CA04202D80224022E0AD370
:103620002146404601F0E4F838B10128E1D0411CC0
:10363000DFD0B442EDD10020DBE74FF0FF36324659
:103640002146284601F03AFA30B957B122463946A8
:10365000284601F033FA20B101280FD0012420467A
:10366000C7E76C61D5E90601891E884201D8401E72
:10367000A861287940F001002871F0E73446EEE7B0
:103680002DE9F84F824600680E68002407698846D5
:103690002546705D6D1C20281AD32F2813D05C2876
:1036A00011D0FF2C39D2012100F074FE5FEA00092D
:1036B00033D0B9F1800F12D201466DA0FFF7E8FEBA
:1036C00058BB0CE06D1C715D2F29FBD05C29F9D033
:1036D0007219C8F80020202805D204250FE027F829
:1036E0001490641CD5E7002509E000BF07EB4400F7
:1036F00030F8020C202801D02E2802D1641E002CA4
:10370000F4D1002027F814003CB10B2220210AF14B
:10371000240001F0B3F9002603E00620BDE8F88F8D
:10372000761C37F816002028FAD02E28F8D01EB1C3
:1037300045F0030500E0641E2CB107EB440030F8AF
:10374000020C2E28F7D14FF000094FF0080BCDF8EE
:10375000009000BF37F8160006F101065FEA000886
:1037600024D0B8F1200F04D0B8F12E0F04D1A64216
:1037700002D045F00305EDE70098584501D2A64276
:1037800019D1BBF10B0F0FD0A64201D045F00305B4
:103790000CD84FF0080000904FEA896026464FF0A1
:1037A0000B0B4FEA1069D5E745F003059AF82400A2
:1037B000E52838D03AE04046B8F1800F10D3002118
:1037C00000F0E8FD5FEA000805D02C4901EB080095
:1037D00010F8800C804645F00205B8F1000F04D0C7
:1037E000014627A0FFF754FE20B14FF05F0845F0D7
:1037F00003050FE0A8F14100192802D849F0020999
:1038000008E0A8F16100192804D8413049F0010905
:103810001FFA80F8009A0AEB020181F824800098D0
:10382000401C009096E705218AF82410BBF1080F90
:1038300003D14FEA89604FEA1069C9F38100032878
:1038400003D06FEA0901890701D145F00205A907F4
:1038500009D409F00301012901D145F0100501281F
:1038600001D145F008058AF82F50002056E70000E6
:10387000222A3A3C3E3F7C7F00000000684D000851
:103880002B2C3B3D5B5D00002DE9F0410F460446CB
:103890000021066800F0D6F988B900253046E169B4
:1038A00001F0F3F858B9216A0978E5290CD059B12B
:1038B00000250121204600F073F80028EED00428EE
:1038C00000D10720BDE8F0816D1CBD42F1D1F9E7C0
:1038D0002DE9F04704460021D0F8009000F0B2F93D
:1038E00000285BD1FF25471EA84627634846E169AB
:1038F00001F0CBF8060050D1216A087850B1CA7A9D
:10390000E52802F03F02A2713FD0130704D50F2A29
:103910003BD105E0042640E00F2A01D0E5B120E0CC
:1039200094F82F20520632D4420606D591F80D8025
:1039300000F0BF00626905462263A84209D14A7BB4
:10394000424506D1D9F81000FFF708FE08B16D1EF8
:1039500000E0FF25EDB21AE0084601F09BF9404572
:103960001BD094F82F00C0070FD1D4F8201004F119
:1039700024000B2211F8013B10F8015B5B1B521E67
:1039800002D0002BF6D000E03BB1FF2527630021D9
:10399000204600F005F80600A8D03046BDE8F087C4
:1039A0002DE9F047054647690468C0698946203714
:1039B00010B1B7F5001F02D30420BDE8F087A1893C
:1039C000B7FBF1F201FB127100295FD1401CE861E5
:1039D000A9694FF0000819B3A0896289B7FBF0F01C
:1039E000521E104252D1284600F002FF064601281E
:1039F0001FD9701C36D0E069B04241D8B9F1000F30
:103A000012D02846A969FFF7E9FD06000FD0012E64
:103A10000FD0701C26D0204601F049F910BB0AE0F7
:103A20002089B0EB571F31D8C5F81C80C4E70720A8
:103A3000C3E70220C1E7A289002104F1380001F0A8
:103A40001DF84FF0000831462046FFF77AFD4FF091
:103A5000010960630DE000BF84F80390204601F087
:103A600026F908B10120A8E7606B08F10108401CA5
:103A7000606361894145EFD8616BA1EB0800606329
:103A800031462046AE61FFF75CFDE8616F61A089B9
:103A9000B7FBF0F100FB11702044383028620020A1
:103AA0008BE700002DE9F04F0446D0F8009090F825
:103AB0002F0089B010F0A00F03D0062009B0BDE898
:103AC000F08F0025D9F8100000E06D1C30F81510BB
:103AD0000029FAD104F124010C226846039100F078
:103AE000C3FF9DF80B00C00719D0402084F82F00B9
:103AF000012633466946D9F81020039800F038FEB5
:103B00002046FFF7E5FE10B9761C642EF1D3642E33
:103B10000FD00428D2D19DF80B0084F82F009DF817
:103B20000B00800707D50D200C35B5FBF0F6761C91
:103B300002E00720C2E7012631462046FFF7A4FE37
:103B400005007BD1761E05965FD06169704201EB5E
:103B50004011204600F076F805006FD1039801F07F
:103B600099F84FF6FF7B07904846E16900F08DFF1A
:103B7000050063D1D9F8100006900598D4F820808C
:103B8000C0B20490079988F80D100F2188F80B1027
:103B9000002188F80C1008F11A0001F077F8049859
:103BA000DFF89CA0401E00EB800101EBC00600275F
:103BB00001E05D4503D0069830F81650761C1AF8DF
:103BC00007002946404401F061F805B95D467F1CB5
:103BD0000D2FEED35D4505D0069830F8160008B1DC
:103BE000049803E0049840F04000049088F8000036
:103BF000012089F8030000212046FFF7D1FE0500CF
:103C00001CD10598401E0590AED14846E16900F0F0
:103C10003CFF050012D120220021206A00F02EFF77
:103C20000B22206A039900F01FFF94F82F00216AED
:103C300000F018000873012089F8030028463DE7CA
:103C4000E84D00082DE9F04104680F460646B1F53D
:103C5000001F3CD2F8063AD17761B56825B92078C3
:103C6000032806D3E56A25B16089A18900FB01F824
:103C700012E02089B0EB571F29D9E06A12E03046E4
:103C800000F0B6FD0546401C1FD0022D1FD3E06991
:103C9000A8421CD9A7EB080747452946EFD2204682
:103CA000FFF74FFCC6E9065088B1A189B7FBF1F1D7
:103CB0000844F061A089B7FBF0F100FB11702044CB
:103CC000383030620020BDE8F0810120FBE702209F
:103CD000F9E7000070B5094C05460020615D002938
:103CE0000AD104EB850160194968007A09688847A0
:103CF000002801D10121615570BD00002C24002055
:103D000030B4054C231804EB80001B7A406804692A
:103D10001846A44630BC60472C24002030B4054D22
:103D20002C1805EB8000247A406885682046AC4654
:103D300030BC60472C240020044A111802EB80009C
:103D4000097A406842680846104700002C24002089
:103D500030B4054D2C1805EB8000247A4068C56806
:103D60002046AC4630BC60472C2400202DE9FE4F95
:103D70000D460446694600F0C3FF07006AD1677D1F
:103D8000002FFBD1E06A4FF0020A4FF0010804F166
:103D9000300B002871D0691C2FD0E068A84200D2F7
:103DA0000546A561002D55D02046691EFFF7B6FBDC
:103DB0000146E0610098FFF7C4FB00287DD0009920
:103DC0006D1E8A89B5FBF2F34D896D1E2B401D18BF
:103DD000A069B0FBF2F302FB13000028E3D0226AD3
:103DE000AA42E0D0207D00063BD548780123594601
:103DF000FFF7AEFF002870D12FE002C80191A16843
:103E000083460225F1B10026AD1C02918946204669
:103E1000761C00F0EDFC014601284ED9481C5CD010
:103E200009F101008142F1D00198854206D8CBF812
:103E300000600BF10400029A04C083460098C06938
:103E40008842E0D8E06A05600198854203D80021E5
:103E5000CBF80010A5E01127A3E0207D00F07F0043
:103E60002075009801232A4640785946FFF756FFEF
:103E7000002832D1256294E0FFE7E068A84203D22F
:103E8000217D890700D405464FF00009A069C4F8D8
:103E900018900DB300994E8989894E4370B1691EFF
:103EA000401EB1FBF6F1B0FBF6F2914206D3711E53
:103EB0008843A0612D1AE1690DE05BE0A16849B972
:103EC00000212046FFF78AFB0146012852D0481CFA
:103ED00061D0A160E161D9B92FE05CE0A069AD1BC0
:103EE0003044A061207D8007204605D5FFF776FB92
:103EF000010004D100250DE000F07AFC0146481CC9
:103F000049D0012936D90098C069884232D9E16187
:103F1000B542E3D8A0692844A06100988289B5FB26
:103F2000F2F302FB135242B1FFF70BFB10B30099FF
:103F30008989B5FBF1F101EB0009E168A0698842CC
:103F400004D9E060217D41F04001217500998A8902
:103F5000B0FBF2F302FB130018B3226A4A4520D0EB
:103F6000207D00060FD5487801235946FFF7F0FE63
:103F700088B904E084F815A00220BDE8FE8F207DFA
:103F800000F07F002075009801234A46407859468A
:103F9000FFF7C4FE18B184F815800120EDE7C4F8DE
:103FA00020903846E9E700002DE9F74181B09046BE
:103FB00002980090684600F091FC040003D50B20A5
:103FC00004B0BDE8F0810D4E002756F824501DB115
:103FD0002846FFF793FA2F700198002800D0077049
:103FE00046F8240002D0B8F1010F01D00020E7E725
:103FF000002201A902A800F029FAE1E71C00002034
:104000002DE9F74396B005000BD002F03F0632468B
:10401000694617A800F01AFA04004FF0000804D00F
:10402000F3E0092019B0BDE8F0830098049004A8DB
:10403000179900F053FB04000ED19DF83F000006D5
:1040400001D5062408E0700801D0012100E000211C
:1040500004A8FFF725FA044616F01C0F5DD04FF0B8
:104060000109C4B1042C10D100206B4902E0401CAE
:10407000022804D201EB00121268002AF7D10228AC
:1040800007D004A8FFF70EFD044646F008065CB111
:10409000BBE01224B9E09DF8160010F0110F47D1D3
:1040A000700701D50824B0E0300747D500F014FCB4
:1040B00007460C9839460E3000F0E0FD0C98394662
:1040C000163000F0DBFD0C982021C1720C9900988D
:1040D00000F062FC074600220C99009800F0BAFD3F
:1040E0000C9800211C3000F0C9FD009981F8039064
:1040F00017B3D1F834900022394604A800F070FDBF
:10410000040009D14946009800F0BFFC0400009863
:10411000A7F1010747610DD077E0ECBB9DF81600D1
:10412000C10601D5042470E0B10703D5C00701D052
:1041300007246AE0300701D546F040060098406B3E
:1041400068620C98A862700801D0012100E000218B
:1041500004A800F0E1FB2861C0B30C99009800F0BE
:104160001BFCA8600C981C3000F029FCC5F82C80C2
:10417000E86000992960009905F130004FF4805201
:10418000C988A9802E7585F81580C5F82080002182
:104190008146C5F8188000E037E000F06FFCB006FB
:1041A00035D5EE689EB3AE610098A96847898089CD
:1041B00047430FE0284600F01BFB0146012800D8CA
:1041C0000224481C03D0F61B24B105E021E00124A1
:1041D000F61B01E0BE42EDD8E961B4B900988289CE
:1041E000B6FBF2F302FB13628AB1FFF7AAF980B1C2
:1041F000009901238A89B6FBF2F202442A624878C8
:104200004946FFF78BFD10B10124C5F80080204618
:1042100008E70224F9E700000C2200202DE9F04F06
:10422000884689B00021196099461546044604A9BC
:1042300000F066FD002812D1607D00280FD1207D9E
:10424000C0070BD0A169E0680127401A4FF0020AAD
:1042500004F1300B854200D9054695E0072009B0EE
:10426000BDE8F08F049BA1699889B1FBF0F200FBD7
:104270001212002A69D1B1FBF0F65889401E06409F
:1042800011D129B1E06A28B12046FFF747F905E0CE
:10429000A06803E02046E16900F0AAFA02281DD3D5
:1042A000411C4DD0E061E1690498FFF74AF9A8B1DB
:1042B0003044009004988189B5FBF1F1059131B348
:1042C000721841898A4201D9891B0591407841467B
:1042D000059B009AFFF722FD90BB03E084F815A030
:1042E0000220BCE7207D00060CD5216A0098081A40
:1042F0000599884206D204998A89594600FB0280B2
:1043000000F0B2FB049886890598464332E0226AA1
:1043100000998A4217D0217D090609D540780123EA
:104320005946FFF715FD58B9207D00F07F00207534
:104330000498012359464078009AFFF7EFFC10B12A
:10434000677501208BE7009820620498A169808935
:10435000B1FBF0F200FB1212861AAE4200D92E46D3
:10436000B1FBF0F200FB1210011932464046303129
:1043700000F07AFBA069B0443044A061D9F8000095
:104380008119AD1BC9F80010002D7FF46BAF002020
:1043900065E70000802804D30B4A51B1FF2801D9FA
:1043A0000020704702EB4000A0F58050B0F8000FED
:1043B000704732F81130834203D0491C89B28029FA
:1043C000F7D38031C8B27047224E000830B5B0F53F
:1043D000805F01D21B4900E01B4931F8022B002A03
:1043E00015D0904213D331F8024B230AE5B252FAAA
:1043F00084F4844221D9092B09D2DFE803F00509AE
:104400000E11131517191B00801A31F8100030BD5A
:10441000811A01F00101401A00E0103880B230BD6D
:104420002038FBE73038F9E71A38F7E70830F5E7C6
:104430005038F3E7A0F5E350F0E7002BCDD101EBC6
:104440004501CAE7224F0008145100082DE9FF4139
:10445000002790460E460F6000F040FA050003D595
:104460000B2004B0BDE8F081984850F825409CB17D
:104470003460207808F0FE0620B16078FFF75CFC1D
:10448000C1070BD02770E8B2B8466070FFF722FC76
:10449000C10708D00320E4E70C20E2E70EB1400793
:1044A00004D40020DDE71EB1400701D50A20D8E77B
:1044B000607804F10C020221FFF722FCF0BBA08916
:1044C000A0F50071B1F5606F3FD8411E08423CD1A4
:1044D000002631462046FEF7A3FF022822D1002500
:1044E0004FEA0D0704EB051090F8FA1100F5FB7088
:1044F00019B1083000F063FA00E0002047F8250009
:104500006D1C042DEED3002557F8256036B13146D9
:104510002046FEF785FF022801D203E003206D1C30
:10452000042DF1D3042810D0022878D204F14300DE
:1045300000F050FAA189884271D100E005E004F151
:104540004E0000F047FA10B105E0012089E704F1C0
:104550005C0000F034FA206294F84850A570012DF8
:1045600001D0022D5BD1454394F845006081E8B34A
:10457000411E084253D104F1490000F02BFA20817A
:10458000A1894909B0FBF1F201FB120070BB04F1F3
:104590004B0000F01FFA070004D104F1580000F0AE
:1045A0000EFA074604F1460000F014FA010036D076
:1045B000A08923894009B3FBF0F04A1902449742CD
:1045C0002DD3B81A6789B0FBF7F078B103274FF6FF
:1045D000F57C604500D8022740F6F57C604500D8A0
:1045E00001273244801C3144226300E017E0E0617F
:1045F000C4E90961032F14D08BB12944E162022F71
:1046000020D000F0010100EB400001EB5000A18937
:10461000401E0844B0FBF1F0216A884214D90D20F5
:104620001FE704F1620000F0D5F90028F7D12089D6
:104630000028F4D104F1640000F0C1F9E062E069FF
:104640008000E4E74000E2E74FF0FF30A0616061E6
:1046500080202071032F2CD104F1680000F0BAF9FA
:10466000012826D1711C204600F00FFA08BB84F8FF
:10467000048004F2362000F0ADF9A0F52A41553946
:1046800017D104F1380000F09AF91149884210D18D
:1046900004F5077000F093F90E49884209D104F53A
:1046A000087000F08CF9A06104F5097000F087F93A
:1046B000606106482770001F0188491C0180E18065
:1046C000054820612046FEF719FFEAE61C0000209D
:1046D00052526141727241612C22002073B504462E
:1046E0000568019801E0401C019001782F29FAD05B
:1046F0005C29F8D00021A16001980078202806D21A
:10470000802084F82F002046FFF79CFA7CBD01A989
:104710002046FEF7B5FF0028F8D12046FFF7D8F86D
:1047200094F82F1028B10428F0D14907EED40520C1
:104730007CBD4907FCD4A079C006F8D5A989606979
:10474000B0FBF1F201FB120041192846383100F0AC
:1047500023F9A060DBE7000013B54FF4FA730122E0
:1047600069460248FDF75EFC00981CBD5C01002014
:104770007CB516461C4605460B2200F075F9052C43
:1047800011D91A4A0CE00021B61C2346044663F3F3
:104790005F044008E30300D55440491C1029F4D3BA
:1047A00030880028EFD107214FEA0D0204F00F00F6
:1047B0003030392800D9C01D5054491E2409F5D184
:1047C0007E205054002000E0401C884202D22B5C26
:1047D000202BF9D1082902D2535C491C00E0202388
:1047E0002B54401C0828F5D37CBD0000211001008B
:1047F0002DE9F04104680D4602290BD3E069A84277
:1048000008D920784FF0FF36012807D0022834D08D
:10481000032849D001263046BDE8F081A08905EB88
:104820005507B7FBF0F0A16A0144204600F02DF9CE
:104830000028F0D1A089B7FBF0F100FB11717F1CBB
:10484000B7FBF0F0214491F83880A16A014420467A
:1048500000F01BF90028DED1A089B7FBF0F100FBC6
:104860001170204490F8381048EA0120E90701D07F
:104870000609D0E7C0F30B06CDE7A089A16A40087E
:10488000B5FBF0F00144204600F0FFF80028C2D14B
:10489000A1896800B0FBF1F201FB1200204438301E
:1048A00000F098F80646B6E7A089A16A8008B5FB33
:1048B000F0F00144204600F0E8F80028ABD1A189CF
:1048C000A800B0FBF1F201FB12002044383000F0E8
:1048D00076F820F070469EE70020704710B5044639
:1048E0004FF0FF302268002A13D0114600E0491C27
:1048F0000B78202B0ED33A2BF9D112F8013B303B29
:104900000A2B06D28A4204D1002B02D1491C184638
:10491000216010BD002010BDF0B502461D4BD2F83D
:104920000050002003EB00142668AE4207D16668F1
:104930009768BE4203D1A4685669B44202D0401CB5
:104940000228EFD3022814D1002002E0401C0228E4
:1049500004D203EB00142468002CF7D102280ED0F7
:1049600003EB00142560956865605269A26000221F
:10497000A281002903EB0011898902D019B100201E
:10498000F0BD491C01E04FF4807103EB0012401CA4
:104990009181F0BD0C22002070B506460D4601F154
:1049A0001A0000F017F804463078032805D105F105
:1049B000140000F00FF844EA0044204670BDC178AE
:1049C000827842EA01214278007842EA012140EAF5
:1049D000012070474178007840EA012070470000CC
:1049E000A0B0FCF7ABFAFEF733FAFDF795FCFDF744
:1049F0006FFCFDF7D1FCFDF7EDFCFDF709FDFDF7C0
:104A00007DFCFEF75FFB4FF47A750B4E0B4F0023D6
:104A10002846346884420DD3B4FBF5F208A16846F9
:104A2000FEF7AEFB3A6869460AA0FEF799FB002341
:104A300004F57A705B1CECE71000002024000020D5
:104A40005469636B20256C75206C6F6F70203D205E
:104A5000257500002573205741565F436F756E74AE
:104A6000203D2025750D0A00002A05D011F8013BD4
:104A700000F8013B521EF9D1704700005FFA81F146
:104A800000F8011B521EFBD1704770B50446406B05
:104A90000D460026A8420FD0204600F008F9060077
:104AA0000AD1607801232A4604F13801FFF736F96C
:104AB00008B1751E01266563304670BD2DE9F047CB
:104AC000022617460D46044602297DD3E069A84216
:104AD0007AD920784FF00109012804D0022840D06B
:104AE00003287AD154E0A18905EB5508B8FBF1F011
:104AF000A16A01442046FFF7C8FF06006DD1A189D5
:104B0000B8FBF1F201FB12802044383008F10108B3
:104B1000E90704D00178FAB262F31F1100E03946C8
:104B2000017084F80390A189B8FBF1F0A16A0144F7
:104B30002046FFF7AAFF06004FD1A189B8FBF1F28A
:104B400001FB128020443830E90702D0C7F3071177
:104B500005E00178C7F3032201F0F0011143017071
:104B600039E0A089A16A4008B5FBF0F00144204675
:104B7000FFF78BFF060030D1A1896800B0FBF1F28E
:104B800001FB12002044B9B2383000F07FF822E077
:104B9000A089A16A8008B5FBF0F001442046FFF728
:104BA00074FF060019D1A089AD00B5FBF0F100FB40
:104BB000115020443830FFF702FF67F31B00014615
:104BC000A089B5FBF0F200E007E000FB12502044A2
:104BD000383000F053F884F803903046BDE8F08791
:104BE0002DE9F041056813460E46074602292DD3EC
:104BF000E869B0422AD93BB14FF0FF321946284646
:104C0000FFF75CFF00281FD131463846FFF7F0FD63
:104C1000040018D0012C19D0601C19D00022314694
:104C20002846FFF74BFF00280ED1D5E90610821E5B
:104C3000914205D2491CA961297941F001012971EC
:104C40002646B042E0D80020BDE8F0810220FBE714
:104C50000120F9E770B50C460646154691B204F1FD
:104C60001A0000F013F83078032806D1290C04F15B
:104C70001400BDE8704000F009B870BD0170090A69
:104C80004170090A8170090AC17070470170090AF0
:104C900041707047014600200B22430803EBC0100F
:104CA00011F8013B521E1844C0B2F6D170472DE9ED
:104CB000F0410446C0780027F8B1656B04F1380173
:104CC000607801232A468846FFF742F808B1012799
:104CD00013E00020E070A06A216A281A88420CD2F2
:104CE000A67808E0206A0123054460782A464146F8
:104CF000FFF72EF8761E022EF4D23846BDE8F0817A
:104D000070B50E4604004FF009050CD0206850B174
:104D1000017841B1A188C288914204D14078FFF75F
:104D20000BF8C00703D000203060284670BD002576
:104D30002068F9E7792D00080F2E0008E92D0008FA
:104D4000152E0008992D00080006101600061016F2
:104D5000000000000000000001020304060708092B
:104D60000000000001020304435545414141414315
:104D700045454549494941414592924F4F4F555507
:104D8000594F554F9C4F9E9F41494F55A5A5A6A7EA
:104D9000A8A9AAABACADAEAFB0B1B2B3B44141417A
:104DA000B8B9BABBBCBDBEBFC0C1C2C3C4C5414116
:104DB000C8C9CACBCCCDCECFD1D14545454949494B
:104DC00049D9DADBDCDD49DF4FE14F4F4F4FE6E8F1
:104DD000E85555555959EEEFF0F1F2F3F4F5F6F7C1
:104DE000F8F9FAFBFCFDFEFF01030507090E10129E
:104DF0001416181C1E222A2B2C2E3A3B3C3D3E3FFB
:104E00005B5D7C7F00000100040010004000000199
:104E10000002000001000200040008001000200051
:104E20000000C700FC00E900E200E400E000E5004B
:104E3000E700EA00EB00E800EF00EE00EC00C40041
:104E4000C500C900E600C600F400F600F200FB0051
:104E5000F900FF00D600DC00F800A300D800D7005E
:104E60009201E100ED00F300FA00F100D100AA0088
:104E7000BA00BF00AE00AC00BD00BC00A100AB009A
:104E8000BB0091259225932502252425C100C2004F
:104E9000C000A9006325512557255D25A200A50066
:104EA0001025142534252C251C2500253C25E30040
:104EB000C3005A25542569256625602550256C2593
:104EC000A400F000D000CA00CB00C8003101CD0022
:104ED000CE00CF0018250C2588258425A600CC00FF
:104EE0008025D300DF00D400D200F500D500B50046
:104EF000FE00DE00DA00DB00D900FD00DD00AF00BF
:104F0000B400AD00B1001720BE00B600A700F70046
:104F1000B800B000A800B700B900B300B200A025E7
:104F2000A00061001A03E0001703F8000703FF0068
:104F30000100780100013001320106013901100140
:104F40004A012E017901060180014D0043028101D1
:104F50008201820184018401860187018701890120
:104F60008A018B018B018D018E018F0190019101CE
:104F7000910193019401F60196019701980198011E
:104F80003D029B019C019D0120029F01A001A00107
:104F9000A201A201A401A401A601A701A701A901E0
:104FA000AA01AB01AC01AC01AE01AF01AF01B1018F
:104FB000B201B301B301B501B501B701B801B80140
:104FC000BA01BB01BC01BC01BE01F701C001C101B6
:104FD000C201C301C401C501C401C701C801C701A1
:104FE000CA01CB01CA01CD011001DD0101008E0112
:104FF000DE011201F3010300F101F401F401F801F3
:105000002801220212013A020900652C3B023B02F0
:105010003D02662C3F0240024102410246020A0163
:105020005302400081018601550289018A0158021C
:105030008F015A0290015C025D025E025F029301E1
:1050400061026202940164026502660267029701CE
:1050500096016A02622C6C026D026E029C01700263
:1050600071029D01730274029F0176027702780239
:1050700079027A027B027C02642C7E027F02A60106
:1050800081028202A9018402850286028702AE01A2
:105090004402B101B20145028D028E028F029002DC
:1050A0009102B7017B030300FD03FE03FF03AC0382
:1050B00004008603880389038A03B1031103C20332
:1050C0000200A303A303C4030803CC0303008C035F
:1050D0008E038F03D8031801F2030A00F903F303C8
:1050E000F403F503F603F703F703F903FA03FA03EE
:1050F0003004200350041007600422018A043601A2
:10510000C1040E01CF040100C004D00444016105B4
:10511000260400007D1D0100632C001E9601A01EC8
:105120005A01001F0806101F0606201F0806301F20
:105130000806401F0606511F0700591F521F5B1F1C
:10514000541F5D1F561F5F1F601F0806701F0E0053
:10515000BA1FBB1FC81FC91FCA1FCB1FDA1FDB1F07
:10516000F81FF91FEA1FEB1FFA1FFB1F801F08061D
:10517000901F0806A01F0806B01F0400B81FB91F23
:10518000B21FBC1FCC1F0100C31FD01F0206E01FAF
:105190000206E51F0100EC1FF21F0100FC1F4E215B
:1051A0000100322170211002842101008321D024CA
:1051B0001A05302C2F04602C0201672C0601752C77
:1051C0000201802C6401002D260841FF1A03000013
:1051D000F05100080000002030000000C831000835
:1051E000205200083000002008680000D831000874
:1051F000010000000000000001000000100000009D
:10520000000000000024F400000000000000000086
:10521000000000000000000000000000000000008E
:040000050800018965
:00000001FF
